:020000040000FA
:100000000C9462000C948A000C948A000C948A0070
:100010000C948A000C948A000C948A000C948A0038
:100020000C948A000C948A000C948A000C9484042A
:100030000C948A000C948A000C948A000C948A0018
:100040000C94E2030C948A000C9452040C942C043B
:100050000C948A000C948A000C948A000C948A00F8
:100060000C948A000C948A000000000023002600F3
:10007000290000000000240027002A0000000000E2
:10008000250028002B0004040404040404040202D4
:100090000202020203030303030301020408102007
:1000A0004080010204081020010204081020000012
:1000B0000008000201000003040700000000000027
:1000C0000000850511241FBECFEFD8E0DEBFCDBFF5
:1000D00013E0A0E0B1E0E2E0FFE102C005900D9284
:1000E000A03CB107D9F724E0A0ECB3E001C01D9219
:1000F000A13AB207E1F710E0C2E6D0E004C02197D0
:10010000FE010E94760DC136D107C9F70E94FA059B
:100110000C947F0F0C9400008F929F92AF92BF922D
:10012000FF920F931F93CF93DF93F0909A042BE0ED
:100130002F1508F44CC020919C0408E512E0021B26
:10014000110927FD1395000F111F000F111F20919A
:100150009B04C8E8D0E0C21BD10927FDD395CC0F82
:10016000DD1FCC0FDD1F4E010D2E000CAA08BB08B1
:100170009801012E000C440B550B281939094A0926
:100180005B09DC010E94E20B24EB30E040E050E030
:100190000E94B80B820E931EA41EB51E8C169D06DF
:1001A0002CF0E801801691060CF4E4012297CC0FA4
:1001B000DD1F2FB7F8948F2D90E0FC01EE0FFF1F8D
:1001C000E80FF91FE359FB4FD283C1832FBFDF91A3
:1001D000CF911F910F91FF90BF90AF909F908F9004
:1001E000089590E0FC01E255FF4F2491FC01E65692
:1001F000FF4F3491FC01EA57FF4FE491EE23C9F021
:10020000222339F0233001F1A8F4213019F12230F2
:1002100029F1F0E0EE0FFF1FE458FF4FA591B491D4
:100220008FB7F894EC91611126C030953E233C9332
:100230008FBF08952730A9F02830C9F0243049F73E
:10024000809180008F7D03C0809180008F778093A4
:100250008000DFCF84B58F7784BDDBCF84B58F7D01
:10026000FBCF8091B0008F778093B000D2CF809188
:10027000B0008F7DF9CF3E2BDACFCF93DF9390E0A4
:10028000FC01E656FF4F24918A579F4FFC01849151
:100290008823D1F090E0880F991FFC01EE58FF4FA2
:1002A000A591B491FC01E458FF4FC591D49161111F
:1002B0000EC09FB7F8948C91E22FE0958E238C931B
:1002C0002881E223E8839FBFDF91CF9108958FB704
:1002D000F894EC91E22BEC938FBFF6CF3FB7F894F4
:1002E0008091CC039091CD03A091CE03B091CF0328
:1002F00026B5A89B05C02F3F19F00196A11DB11D81
:100300003FBFBA2FA92F982F8827BC01CD01620FBC
:10031000711D811D911D42E0660F771F881F991F77
:100320004A95D1F708958F929F92AF92BF92CF9244
:10033000DF92EF92FF924B015C010E946E016B0114
:100340007C010E946E016C197D098E099F09683E2F
:10035000734081059105A8F321E0821A9108A10854
:10036000B10888EEC80E83E0D81EE11CF11C811490
:100370009104A104B10429F7FF90EF90DF90CF9092
:10038000BF90AF909F908F9008952FB7F894609191
:10039000C8037091C9038091CA039091CB032FBF0A
:1003A0000895AF92BF92CF92DF92EF92FF920F9398
:1003B0001F93CF93DF936C017B018B01040F151FFB
:1003C000EB015E01AE18BF08C017D10759F0699163
:1003D000D601ED91FC910190F081E02DC6010995C7
:1003E000892B79F7C501DF91CF911F910F91FF9074
:1003F000EF90DF90CF90BF90AF900895FC01538DA8
:10040000448D252F30E0842F90E0821B930B5417EE
:1004100010F0CF96089501970895FC01918D828D7B
:10042000981761F0A28DAE0FBF2FB11D5D968C9114
:10043000928D9F5F9F73928F90E008958FEF9FEF53
:1004400008950F931F930E94C5016093D803709382
:10045000D9038093DA039093DB0380ED93E00E944D
:100460000D0297FF1DC00E94C5010091D803109195
:10047000D9032091DA033091DB03601B710B820BEF
:10048000930B0091D4031091D5032091D6033091A2
:10049000D7036017710782079307F8F28FEF9FEF7A
:1004A0001F910F910895FC01918D828D981731F065
:1004B000828DE80FF11D858D90E008958FEF9FEFFD
:1004C0000895FC01918D228D892F90E0805C9F4FD3
:1004D000821B91098F739927089580ED93E00E9404
:1004E000610221E0892B09F420E0822F089580E049
:1004F00090E0892B29F00E946D0281110C9400007C
:100500000895FC01A48DA80FB92FB11DA35ABF4FA8
:100510002C91848D90E001968F739927848FA68902
:10052000B7892C93A089B1898C91837080648C9356
:10053000938D848D981306C00288F389E02D808105
:100540008F7D80830895EF92FF920F931F93CF9337
:10055000DF93EC0181E0888F9B8D8C8D98131AC0FE
:10056000E889F989808185FF15C09FB7F894EE89E5
:10057000FF896083E889F989808183708064808342
:100580009FBF81E090E0DF91CF911F910F91FF908D
:10059000EF900895F62E0B8D10E00F5F1F4F0F7335
:1005A0001127E02E8C8D8E110CC00FB607FCFACFF0
:1005B000E889F989808185FFF5CFCE010E9481020B
:1005C000F1CFEB8DEC0FFD2FF11DE35AFF4FF082C1
:1005D0009FB7F8940B8FEA89FB8980818062CFCF27
:1005E000CF93DF93EC01888D8823B9F0AA89BB896A
:1005F000E889F9898C9185FD03C0808186FD0DC055
:100600000FB607FCF7CF8C9185FFF2CF808185FF75
:10061000EDCFCE010E948102E9CFDF91CF91089505
:10062000FC0101900020E9F73197AF01481B590BFD
:10063000BC0180ED93E00C94D1018F929F92AF9218
:10064000BF920F931F93CF93DF93CDB7DEB7A197E0
:100650000FB6F894DEBF0FBECDBF19A2423008F42A
:100660004AE08E010F5D1F4F842E912CB12CA12CDE
:10067000A50194010E94210CE62FB901CA01EA30BC
:10068000F4F4E05DD801EE938D01232B242B252B70
:1006900079F790E080E0109719F0CD010E941003E7
:1006A000A1960FB6F894DEBF0FBECDBFDF91CF91FC
:1006B0001F910F91BF90AF909F908F900895E95C2C
:1006C000E1CFCF92DF92EF92FF92CF93DF936B0156
:1006D0007C016DE280ED93E00E94A302EC016627AD
:1006E0007727CB016C197D098E099F094AE00E948A
:1006F0001D038C0F9D1FDF91CF91FF90EF90DF9036
:10070000CF900895CF93DF930E941003EC018AE10C
:1007100091E00E9410038C0F9D1FDF91CF910895EF
:100720000C941003CF93DF93BC01990F880B990BA6
:100730004AE00E941D03EC018AE191E00E9410034F
:100740008C0F9D1FDF91CF910895FC01248135818D
:10075000232B39F421E0FB018081882349F020E03C
:1007600007C0808191810E946F0F21E0892BB9F72A
:10077000822F08950F931F93CF93DF93EC0188810D
:100780009981009759F02A813B812617370730F06D
:1007900081E0DF91CF911F910F9108958B016F5FE1
:1007A0007F4F0E94A10E009759F0998388831B8385
:1007B0000A832C813D81232B59F7FC011082E8CF5D
:1007C00080E0E7CF1F920F920FB60F9211242F9364
:1007D0003F938F939F93AF93BF938091C803909162
:1007E000C903A091CA03B091CB033091C70323E0A2
:1007F000230F2D3758F50196A11DB11D2093C70376
:100800008093C8039093C903A093CA03B093CB030A
:100810008091CC039091CD03A091CE03B091CF03F2
:100820000196A11DB11D8093CC039093CD03A0939D
:10083000CE03B093CF03BF91AF919F918F913F9122
:100840002F910F900FBE0F901F90189526E8230F41
:100850000296A11DB11DD2CF1F920F920FB60F921B
:1008600011242F933F934F935F936F937F938F93B5
:100870009F93AF93BF93EF93FF9380ED93E00E941C
:100880008102FF91EF91BF91AF919F918F917F91E5
:100890006F915F914F913F912F910F900FBE0F90ED
:1008A0001F9018951F920F920FB60F9211242F933D
:1008B0008F939F93EF93FF93E091E003F091E10317
:1008C0008081E091E603F091E70382FD1BC09081F7
:1008D0008091E9038F5F8F732091EA03821741F0C3
:1008E000E091E903F0E0E053FC4F958F8093E9033A
:1008F000FF91EF919F918F912F910F900FBE0F90CD
:100900001F9018958081F4CF1F920F920FB60F920F
:1009100011242F933F934F935F936F937F938F9304
:100920009F93AF93BF93CF93DF93EF93FF93809108
:10093000C003C0919104D0E087FF24C010928500CD
:10094000109284008091C0038F5F8093C0038091D8
:10095000C003082E000C990B8C179D0724F480917E
:10096000C0038C30C4F1809184009091850004967E
:1009700080349C4908F47AC080918400909185006D
:10098000049676C08091C003082E000C990B8C173A
:100990009D07C4F6E091C0038E2FEE0F990BFC016A
:1009A000EE0FFF1FE80FF91FE359FB4F808186FF11
:1009B000C9CFE091C0038E2FEE0F990BFC01EE0F13
:1009C000FF1FE80FF91FE359FB4F808160E08F7331
:1009D0000E94F100B7CF2091840030918500E09112
:1009E000C0038E2FEE0F990BFC01EE0FFF1FE80FD7
:1009F000F91FE359FB4F81819281820F931F9093DE
:100A0000890080938800E091C0038E2FEE0F990B30
:100A1000FC01EE0FFF1FE80FF91FE359FB4F808128
:100A200086FF11C0E091C0038E2FEE0F990BFC01E1
:100A3000EE0FFF1FE80FF91FE359FB4F808161E0C4
:100A40008F730E94F100FF91EF91DF91CF91BF91E1
:100A5000AF919F918F917F916F915F914F913F9156
:100A60002F910F900FBE0F901F90189580E49CE976
:100A700090938900809388008FEF8093C003E3CF29
:100A8000CF92DF92EF92FF920F931F93E82FF92FEF
:100A900005C0015011092109310961F190819623A6
:100AA0009417B9F305C0015011092109310911F159
:100AB000908196239413F7CFC12CD12CE12CF12CEB
:100AC0000AC08FEFC81AD80AE80AF80A0C151D05E3
:100AD0002E053F0579F080818623841791F36C2DD4
:100AE0007D2D8E2D9F2D1F910F91FF90EF90DF9008
:100AF000CF90089560E070E080E090E01F910F914A
:100B0000FF90EF90DF90CF9008951092D303109252
:100B1000D20388EE93E0A0E0B0E08093D4039093FA
:100B2000D503A093D603B093D7038CE091E09093C4
:100B3000D1038093D00385EC90E09093DD03809304
:100B4000DC0384EC90E09093DF038093DE0380EC81
:100B500090E09093E1038093E00381EC90E0909328
:100B6000E3038093E20382EC90E09093E5038093AB
:100B7000E40386EC90E09093E7038093E603109201
:100B8000E9031092EA031092EB031092EC038091B8
:100B900091048C3058F591E0980F909391048093D4
:100BA0009A0490E0FC01EE0FFF1FE80FF91FE359D4
:100BB000FB4F88EB9BE0928381830E94C5010E94DA
:100BC000960A609396047093970480939804909388
:100BD00099040E94C5010E94960A60939204709342
:100BE0009304809394049093950408958FEF8093D9
:100BF0009A04E3CFCF93DF93CDB7DEB72C970FB630
:100C0000F894DEBF0FBECDBF789484B5826084BDFA
:100C100084B5816084BD85B5826085BD85B5816000
:100C200085BD80916E00816080936E00109281007E
:100C30008091810082608093810080918100816039
:100C400080938100809180008160809380008091FA
:100C5000B10084608093B1008091B0008160809386
:100C6000B00080917A00846080937A0080917A004D
:100C7000826080937A0080917A00816080937A000C
:100C800080917A00806880937A001092C100E09190
:100C9000E003F091E10382E08083E091DC03F091D6
:100CA000DD031082E091DE03F091DF038FEC80839F
:100CB0001092E803E091E403F091E50386E080837D
:100CC000E091E203F091E303808180618083E09111
:100CD000E203F091E303808188608083E091E20386
:100CE000F091E303808180688083E091E203F091DA
:100CF000E30380818F7D80838DE191E00E948203F8
:100D000061E084E00E943D0160E085E00E943D01D9
:100D100080919A048C3008F051C061E083E00E9419
:100D20003D0180919A04282F30E0F901EE0FFF1F5A
:100D3000E20FF31FE359FB4F9081907C9360908307
:100D400010929B0410929C042CE0622F0E946A0D6A
:100D5000829FB001112430E020E0AB01420F531F0D
:100D6000FA01EE0FFF1FE40FF51FE359FB4F9081CF
:100D700096FD16C02F5F3F4F2C30310571F7811162
:100D80000FC01092800082E0809381001092850055
:100D900010928400B19A80916F00826080936F00FE
:100DA000E0919A048E2F90E0FC01EE0FFF1FE80FF8
:100DB000F91FE359FB4F80818064808390E080E0DD
:100DC0000E948C0033E0632E712C92E0292E312C8E
:100DD00024E0422E512C61E084E00E94F10083E285
:100DE00090E00197F1F760E084E00E94F100EFE904
:100DF000F0E06491EBE8F0E08491E82FF0E0EE0F92
:100E0000FF1FE859FF4F8591949100E412E42FE011
:100E100030E0462F0E94400561157105810591055E
:100E200029F06F5F7F4F8F4F9F4F9F70072E000CF1
:100E3000880B990B0E94980A2DEC3CEC48E652E492
:100E40000E94BF0C6093C3037093C4038093C503D7
:100E50009093C60380ED93E00E9461021816190674
:100E60000CF04FC118861F821A8619861C861B86B5
:100E700070E060E0CE0107960E94BA032F813885AA
:100E800081112EC02115310519F0C9010E94180EDB
:100E900018861F821C861B861A8619860E942102CC
:100EA00097FD26C08A30910519F189831A820B8536
:100EB0001C850F5F1F4FB801CE0107960E94BA0331
:100EC000882361F32F8138858B859C85BE016F5FF8
:100ED0007F4F820F931F0E94780F1C870B87DECFF6
:100EE0001C861B8664E973E0C9010E94780FD6CF87
:100EF0000F8118850115110571F0F80181918F019D
:100F0000882349F0082E000C990B0E945E0FF8010F
:100F100031978083F2CFCF80D884C114D10439F0C7
:100F20000B851C8576010115110509F04DC01A824B
:100F300019821C821B821E821D820F811885011559
:100F40001105B9F0EB84FC84B701CE0101960E9433
:100F5000BA0329813A8181116DC02115310519F03B
:100F6000C9010E94180E1A8219821E821D821C82DB
:100F70001B8265E671E0CE0101960E94A5038823DD
:100F800009F45FC08EE291E00E9482038AE491E05E
:100F90000E9482038AE691E00E94820388E891E041
:100FA0000E9482038FEA91E00E94820382ED91E029
:100FB0000E94820386EF91E00E9482038DE192E01D
:100FC0000E94820392C074014701FFEF8F1A9F0AAB
:100FD000F7018081082E000C990B0E94880A892B4A
:100FE00091F7015011090C0D1D1DF8018081082E8B
:100FF000000C990B0E94880A892B31F00E151F05F1
:1010000018F001501109F1CF0F5F1F4FA8014E19C1
:101010005F095C874B87CE14DF0420F4B701C6015B
:101020000E94660FEF81F8858B859C85E80FF91F7C
:1010300010827DCFFE82ED82B801C9010E94780F37
:1010400098CF66EA71E0CE0101960E94A50388233D
:10105000A9F188E392E00E94820381E592E00E9478
:10106000900389E190E00E94920385E692E00E945D
:10107000900388E893E10E94920380E792E00E9447
:1010800090038AE590E00E9492038DE792E00E942F
:10109000900390E080E00E9492038BE892E00E942F
:1010A000900380E293E00E9492038BE992E00E9419
:1010B000900384E893E00E94920380CF62E871E09D
:1010C000CE0101960E94A503882309F482C081E025
:1010D00090E02091C1033091C203232B11F090E0E6
:1010E00080E09093C2038093C10389819A81009725
:1010F00011F00E94180E8F819885009711F00E94C0
:10110000180E8091C1039091C203892B09F441C04C
:101110008BE893E00E9490036091000170910101BF
:10112000072E000C880B990B97FFACC00E9461033F
:1011300083E993E00E94900385E993E00E94900385
:10114000C090C303D090C403E090C503F090C603E1
:10115000A7019601C701B6010E94650D882309F415
:1011600095C086EA93E00E94100383E993E00E9411
:10117000900382EB93E00E94900380910001909194
:1011800001010597029708F013C189EB93E00E94D3
:10119000820380910001909101018230910509F450
:1011A00058C10CF008C1019709F439C164E670E038
:1011B00080E090E00E94930180E090E0892B09F4A8
:1011C0000ACE0E946D02882309F4FFCD0E94000020
:1011D000FCCD6CEA72E0CE0101960E94A503882343
:1011E00069F090E080E00E948C0085E090E09093B0
:1011F00001018093000182EB92E0E2CE60EF72E0A9
:10120000CE0101960E94A5038823C9F08AE590E0EB
:101210000E948C000E94C5010E94960A6093960469
:10122000709397048093980490939904E6E0F0E01B
:10123000F0930101E093000185EF92E0C1CE62E3FB
:1012400073E0CE0101960E94A5038823C1F080912E
:101250000001909101018530910539F481E090E021
:10126000909301018093000140CF069729F470927A
:1012700001016092000139CF87E393E0A1CE82E5BE
:1012800093E09ECE4AE00E941D0352CF46015701D3
:10129000E894B7F82FEF3FEF4FE75FE7C501B401E0
:1012A0000E94650D81110DC02FEF3FEF4FE75FE703
:1012B000C501B4010E94910A18161CF48AEA93E051
:1012C00052CF2FEF3FEF4FE75FE4C701B6010E9417
:1012D000600D18161CF48EEA93E045CF2FEF3FEF18
:1012E0004FE75FECC701B6010E94910A87FDF3CF7B
:1012F00020E030E0A901C701B6010E94910A87FFF2
:1013000009C06DE280ED93E00E94A302F7FAF09429
:10131000F7F8F0942AE037ED43EA5BE3C701B60142
:101320000E94530C4B015C010E94310D6B017C014A
:101330000E94960A9B01AC01C501B4010E94520CA7
:101340004B015C014AE0C701B6010E941D036EE239
:1013500080ED93E00E94A30220E030E040E251E4FF
:10136000C501B4010E94F70A4B015C010E94310DD6
:101370006B01F12CE12C4AE0C701B6010E941D036C
:10138000C701B6010E94960A9B01AC01C501B401D8
:101390000E94520C20E030E040E251E40E94F70A43
:1013A0000E94310D90E080E04AE00E941D03DDCEF6
:1013B00082E393E0ECCE8330910509F461C0049799
:1013C00009F0F4CE20E030E048EC51E46091C30332
:1013D0007091C4038091C5039091C6030E94910A45
:1013E000181674F50E94C5010E94960A2091920475
:1013F0003091930440919404509195040E94520CB2
:1014000020E030E041E654E40E94600D87FDCECE3E
:10141000E1E0F0E0F0930101E0930001C7CE20E0AD
:1014200030E048EC51E46091C3037091C4038091B3
:10143000C5039091C6030E94910A18160CF4B6CE0B
:101440008AE590E00E948C00309201012092000118
:10145000ADCE60E273E080E090E00E9493010E94D4
:10146000C5010E94960A6093960470939704809336
:10147000980490939904709201016092000196CEB5
:101480000E94C5010E94960A20919604309197040B
:1014900040919804509199040E94520C20E030E44D
:1014A0004CE955E40E94600D87FD14C090E080E097
:1014B0000E948C000E94C5010E94960A60939204CB
:1014C0007093930480939404909395045092010137
:1014D0004092000120E030E048EC51E46091C30309
:1014E0007091C4038091C5039091C6030E94910A34
:1014F00018160CF45BCE0E94C5010E94960A6093F8
:1015000096047093970480939804909399044ECE18
:1015100091110C94640B803219F089508550C8F7F2
:1015200008950E94D30A08F481E00895E89409C060
:1015300097FB3EF490958095709561957F4F8F4F06
:101540009F4F9923A9F0F92F96E9BB279395F6951C
:10155000879577956795B795F111F8CFFAF4BB0F9A
:1015600011F460FF1BC06F5F7F4F8F4F9F4F16C0FE
:10157000882311F096E911C0772321F09EE8872F88
:10158000762F05C0662371F096E8862F70E060E044
:101590002AF09A95660F771F881FDAF7880F9695BD
:1015A000879597F90895990F0008550FAA0BE0E861
:1015B000FEEF16161706E807F907C0F01216130615
:1015C000E407F50798F0621B730B840B950B39F455
:1015D0000A2661F0232B242B252B21F408950A26BB
:1015E00009F4A140A6958FEF811D811D08950E94E9
:1015F0000A0B0C947E0B0E94700B38F00E94770B44
:1016000020F0952311F00C94670B0C946D0B1124B2
:101610000C94B20B0E948F0B70F3959FC1F3950F42
:1016200050E0551F629FF001729FBB27F00DB11D66
:10163000639FAA27F00DB11DAA1F649F6627B00DF6
:10164000A11D661F829F2227B00DA11D621F739FDF
:10165000B00DA11D621F839FA00D611D221F749FED
:101660003327A00D611D231F849F600D211D822F34
:10167000762F6A2F11249F5750409AF0F1F088235B
:101680004AF0EE0FFF1FBB1F661F771F881F915088
:101690005040A9F79E3F510580F00C94670B0C94C5
:1016A000B20B5F3FE4F3983ED4F386957795679548
:1016B000B795F795E7959F5FC1F7FE2B880F911DB2
:1016C0009695879597F9089599278827089597F90A
:1016D0009F6780E870E060E008959FEF80EC0895D8
:1016E00000240A9416161706180609060895002401
:1016F0000A9412161306140605060895092E03947B
:10170000000C11F4882352F0BB0F40F4BF2B11F4EE
:1017100060FF04C06F5F7F4F8F4F9F4F089557FD4D
:101720009058440F551F59F05F3F71F04795880F4F
:1017300097FB991F61F09F3F79F0879508951216E6
:1017400013061406551FF2CF4695F1DF08C0161692
:1017500017061806991FF1CF869571056105089443
:101760000895E894BB2766277727CB0197F908955A
:10177000052E97FB1EF400940E94CF0B57FD07D057
:101780000E94210C07FC03D04EF40C94CF0B509513
:101790004095309521953F4F4F4F5F4F089590955D
:1017A0008095709561957F4F8F4F9F4F08950E9450
:1017B000430CA59F900DB49F900DA49F800D911D8B
:1017C00011240895B7FF0C94D70B0E94D70B821BEE
:1017D000930B08952F923F924F925F926F927F9258
:1017E0008F929F92AF92BF92CF92DF92EF92FF9231
:1017F0000F931F93CF93DF93CDB7DEB7CA1BDB0BDD
:101800000FB6F894DEBF0FBECDBF09942A88398881
:1018100048885F846E847D848C849B84AA84B98488
:10182000C884DF80EE80FD800C811B81AA81B98194
:10183000CE0FD11D0FB6F894DEBF0FBECDBFED01A8
:101840000895A1E21A2EAA1BBB1BFD010DC0AA1F01
:10185000BB1FEE1FFF1FA217B307E407F50720F019
:10186000A21BB30BE40BF50B661F771F881F991F94
:101870001A9469F760957095809590959B01AC01DD
:10188000BD01CF010895A29FB001B39FC001A39FE6
:10189000700D811D1124911DB29F700D811D1124A9
:1018A000911D08955058BB27AA270E946A0C0C94DA
:1018B0007E0B0E94700B38F00E94770B20F039F4F9
:1018C0009F3F19F426F40C946D0B0EF4E095E7FBA2
:1018D0000C94670BE92F0E948F0B58F3BA1762071D
:1018E00073078407950720F079F4A6F50C94B10BE3
:1018F0000EF4E0950B2EBA2FA02D0B01B90190012B
:101900000C01CA01A0011124FF27591B99F0593F6E
:1019100050F4503E68F11A16F040A22F232F342FB6
:101920004427585FF3CF469537952795A795F04004
:101930005395C9F77EF41F16BA0B620B730B840B19
:10194000BAF09150A1F0FF0FBB1F661F771F881FD1
:10195000C2F70EC0BA0F621F731F841F48F4879529
:1019600077956795B795F7959E3F08F0B0CF93951B
:10197000880F08F09927EE0F9795879508950E9494
:10198000D30C0C947E0B0E94770B58F00E94700BC6
:1019900040F029F45F3F29F00C94670B51110C942F
:1019A000B20B0C946D0B0E948F0B68F39923B1F36B
:1019B000552391F3951B550BBB27AA276217730775
:1019C000840738F09F5F5F4F220F331F441FAA1F09
:1019D000A9F335D00E2E3AF0E0E832D091505040C5
:1019E000E695001CCAF72BD0FE2F29D0660F771F73
:1019F000881FBB1F261737074807AB07B0E809F059
:101A0000BB0B802DBF01FF2793585F4F3AF09E3FDD
:101A1000510578F00C94670B0C94B20B5F3FE4F324
:101A2000983ED4F3869577956795B795F7959F5F20
:101A3000C9F7880F911D9695879597F90895E1E06C
:101A4000660F771F881FBB1F621773078407BA07CB
:101A500020F0621B730B840BBA0BEE1F88F7E09526
:101A600008950E94970B88F09F5798F0B92F9927F7
:101A7000B751B0F0E1F0660F771F881F991F1AF079
:101A8000BA95C9F714C0B13091F00E94B10BB1E022
:101A900008950C94B10B672F782F8827B85F39F021
:101AA000B93FCCF3869577956795B395D9F73EF412
:101AB00090958095709561957F4F8F4F9F4F0895BA
:101AC0000E94D30A08F48FEF08950E94D30A880B6E
:101AD000990B0895991B79E004C0991F961708F097
:101AE000961B881F7A95C9F780950895EE0FFF1F02
:101AF0000590F491E02D09940F931F93CF93DF93FA
:101B00008230910510F482E090E0E0919F04F09122
:101B1000A00430E020E0B0E0A0E0309799F4211577
:101B2000310509F44AC0281B390B24303105D8F59A
:101B30008A819B816115710589F1FB019383828301
:101B4000FE0111C04081518102811381481759075C
:101B5000E0F04817590799F4109761F012960C932A
:101B6000129713961C933296CF01DF91CF911F915C
:101B70000F91089500939F041093A004F4CF2115B2
:101B8000310551F04217530738F0A901DB019A01E2
:101B9000BD01DF01F801C1CFEF01F9CF9093A0049F
:101BA00080939F04CDCFFE01E20FF31F81939193A9
:101BB0002250310939832883D7CF20919D04309159
:101BC0009E04232B41F420910401309105013093B0
:101BD0009E0420939D042091020130910301211560
:101BE000310541F42DB73EB74091060150910701F0
:101BF000241B350BE0919D04F0919E04E217F3073E
:101C0000A0F42E1B3F0B2817390778F0AC014E5F6C
:101C10005F4F2417350748F04E0F5F1F50939E0407
:101C200040939D04819391939FCFF0E0E0E09CCF9F
:101C3000CF93DF930097E9F0FC0132971382128271
:101C4000A0919F04B091A004ED0130E020E0109736
:101C5000A1F420813181820F931F20919D04309146
:101C60009E042817390709F061C0F0939E04E093A1
:101C70009D04DF91CF910895EA01CE17DF07E8F5C3
:101C80004A815B819E0141155105B1F7E901FB8352
:101C9000EA8349915991C40FD51FEC17FD0761F4F0
:101CA000808191810296840F951FE9019983888331
:101CB000828193819B838A83F0E0E0E012968D918C
:101CC0009C9113970097B9F52D913C911197CD01F7
:101CD0000296820F931F20919D0430919E04281735
:101CE000390739F6309751F51092A00410929F04ED
:101CF000B0939E04A0939D04BCCFD383C283408144
:101D00005181840F951FC817D90761F44E5F5F4F4B
:101D100088819981480F591F518340838A819B8113
:101D2000938382832115310509F0B0CFF093A0048D
:101D3000E0939F049ECFFD01DC01C0CF138212828D
:101D4000D7CFB0E0A0E0E7EAFEE00C94EC0B8C010A
:101D5000009751F4CB010E947C0D8C01C801CDB7D6
:101D6000DEB7E0E10C94080CFC01E60FF71F9C01C4
:101D700022503109E217F30708F49DC0D901CD9133
:101D8000DC911197C617D70798F0C530D10530F30D
:101D9000CE0104978617970708F3C61BD70B229727
:101DA000C193D1936D937C93CF010E94180ED6CF2F
:101DB0005B01AC1ABD0A4C018C0E9D1EA0919F04C4
:101DC000B091A004512C412CF12CE12C109731F54D
:101DD00080919D0490919E048815990509F05CC03E
:101DE0004616570608F058C08091020190910301F1
:101DF000009741F48DB79EB74091060150910701BD
:101E0000841B950BE817F90708F055C0F0939E0462
:101E1000E0939D04F90171836083A0CF8D919C9123
:101E2000119712966C90129713967C901397A815A1
:101E3000B90559F56C0142E0C40ED11CCA14DB048B
:101E400020F1AC014A195B09DA011296159780F06E
:101E50006282738251834083D9016D937C93E11434
:101E6000F10471F0D7011396FC93EE93129776CF9D
:101E700022968C0F9D1FF90191838083F301EFCF90
:101E8000F093A004E0939F0469CF4816590608F424
:101E90002C017D01D3019ACFCB010E947C0D7C01E6
:101EA000009749F0AE01B8010E94660FC8010E9478
:101EB000180E870153CF10E000E050CF9111089524
:101EC00081548A5108F4805E855A0895FB01DC0133
:101ED00002C001900D9241505040D8F70895FB0187
:101EE000DC018D91019080190110D9F3990B0895AF
:101EF000FB01DC0101900D920020E1F70895F894B8
:101F0000FFCF01000000A104800000000000A30238
:101F1000D101FE01F00261020D0253020D0A0070B0
:101F2000726F6772616D6D207374617274656400A5
:101F30000A3D3D3D20415641494C41424C452043DC
:101F40004F4D4D414E4453203D3D3D0068656C7002
:101F500020202020202020202020202D2053686FAA
:101F60007720746869732068656C700064656275B9
:101F700067202020202020202020202D20746F6723
:101F8000676C652064656275670073657474696E5B
:101F90006773202020202020202D2053686F772079
:101FA00063757272656E742073657474696E67739D
:101FB000006F70656E20202020202020202020200F
:101FC0002D204D616E75616C6C79206F70656E208F
:101FD0006C696400636C6F736520202020202020D2
:101FE0002020202D204D616E75616C6C7920636C12
:101FF0006F7365206C6964006175746F2020202008
:10200000202020202020202D206175746F6D6174A8
:102010006963206C696420636F6E74726F6C003D3D
:102020003D3D3D3D3D3D3D3D3D3D3D3D3D3D3D3DE0
:102030003D3D3D3D3D3D3D3D3D000A3D3D3D204357
:10204000555252454E542053455454494E47533DE2
:102050003D3D0041435449564154494F4E5F484528
:10206000494748543A20004341505F54494D453A4E
:1020700020004F50454E5F414E474C453A200043AB
:102080004C4F53455F414E474C453A20004C494424
:102090005F4F50454E5F54494D453A20004C4944EE
:1020A0005F434C4F53455F54494D453A2000636CA4
:1020B0006F7365004C6964206D616E75616C6C793D
:1020C00020636C6F7365642E2053656E64202761F6
:1020D00075746F2720746F2072657475726E20742A
:1020E0006F206175746F6D61746963206D6F6465D5
:1020F0002E006F70656E004C6964206D616E7561B5
:102100006C79206F70656E65642E2053656E642057
:10211000276175746F2720746F2072657475726EF5
:1021200020746F206175746F6D61746963206D6FC9
:1021300064652E006175746F00416C72656164792D
:1021400020696E206175746F6D61746963206D6FB5
:1021500064652E00436F6D6D616E64206E6F742038
:10216000666F756E642E2054797065202768656CE3
:10217000702720746F207365652061206C6973740B
:10218000206F6620636F6D6D616E647300737461A0
:1021900074653A2000090073656E736F7244697349
:1021A00074616E63653A20006E616E00696E660050
:1021B0006F7666006D6F64653A20006D616E7561C3
:0221C0006C00B1
:107E0000112484B714BE81FFF0D085E080938100F7
:107E100082E08093C00088E18093C10086E0809377
:107E2000C20080E18093C4008EE0C9D0259A86E02C
:107E300020E33CEF91E0309385002093840096BBD3
:107E4000B09BFECF1D9AA8958150A9F7CC24DD24C4
:107E500088248394B5E0AB2EA1E19A2EF3E0BF2EE7
:107E6000A2D0813461F49FD0082FAFD0023811F036
:107E7000013811F484E001C083E08DD089C08234E0
:107E800011F484E103C0853419F485E0A6D080C0E4
:107E9000853579F488D0E82EFF2485D0082F10E0AE
:107EA000102F00270E291F29000F111F8ED06801E7
:107EB0006FC0863521F484E090D080E0DECF843638
:107EC00009F040C070D06FD0082F6DD080E0C81688
:107ED00080E7D80618F4F601B7BEE895C0E0D1E017
:107EE00062D089930C17E1F7F0E0CF16F0E7DF06D8
:107EF00018F0F601B7BEE89568D007B600FCFDCFD4
:107F0000A601A0E0B1E02C9130E011968C91119780
:107F100090E0982F8827822B932B1296FA010C0160
:107F200087BEE89511244E5F5F4FF1E0A038BF0790
:107F300051F7F601A7BEE89507B600FCFDCF97BE46
:107F4000E89526C08437B1F42ED02DD0F82E2BD052
:107F50003CD0F601EF2C8F010F5F1F4F84911BD097
:107F6000EA94F801C1F70894C11CD11CFA94CF0C13
:107F7000D11C0EC0853739F428D08EE10CD085E9AC
:107F80000AD08FE07ACF813511F488E018D01DD067
:107F900080E101D065CF982F8091C00085FFFCCF94
:107FA0009093C60008958091C00087FFFCCF809118
:107FB000C00084FD01C0A8958091C6000895E0E648
:107FC000F0E098E1908380830895EDDF803219F02E
:107FD00088E0F5DFFFCF84E1DECF1F93182FE3DFCA
:107FE0001150E9F7F2DF1F91089580E0E8DFEE27F6
:047FF000FF270994CA
:027FFE00040479
:00000001FF
