:020000040000FA
:100000000C9462000C948A000C948A000C948A0070
:100010000C948A000C948A000C948A000C948A0038
:100020000C948A000C948A000C948A000C9483052A
:100030000C948A000C948A000C948A000C948A0018
:100040000C94E1040C948A000C9451050C942B053B
:100050000C948A000C948A000C948A000C948A00F8
:100060000C948A000C948A000000000023002600F3
:10007000290000000000240027002A0000000000E2
:10008000250028002B0004040404040404040202D4
:100090000202020203030303030301020408102007
:1000A0004080010204081020010204081020000012
:1000B0000008000201000003040700000000000027
:1000C0000000B50611241FBECFEFD8E0DEBFCDBFC4
:1000D00015E0A0E0B1E0EAE9F4E202C005900D927B
:1000E000A832B107D9F726E0A8E2B5E001C01D9219
:1000F000AA30B207E1F710E0C2E6D0E004C02197D1
:10010000FE010E942B10C136D107C9F70E942A07B1
:100110000C944B120C940000CF92DF92EF92FF925E
:10012000DC01A03282E0B807D4F5A53BB10514F09C
:10013000A4EBB0E04091040628E830E0241B31092C
:1001400047FD3395220F331F220F331F6901330FF1
:10015000EE08FF084091050628E532E0241B31092E
:1001600047FD3395220F331F220F331F032E000C40
:10017000440B550B2C193D094E095F09B7FF02C00E
:10018000B0E0A0E00E94970E24EB30E040E050E0A9
:100190000E946D0EC20ED31EE41EF51ED601E09124
:1001A0000306EC3080F52091040688E890E0821B7D
:1001B000910927FD9395880F991F880F991FA817FC
:1001C000B90784F02091050688E592E0821B910929
:1001D00027FD9395880F991F880F991FA817B907B6
:1001E0000CF4CD010297880F991F4FB7F8942E2F6A
:1001F00030E0F901EE0FFF1FE20FF31FEA52FA4F52
:10020000928381834FBFFF90EF90DF90CF9008954E
:1002100090E0FC01E255FF4F2491FC01E656FF4FB0
:100220003491FC01EA57FF4FE491EE23C9F02223F9
:1002300039F0233001F1A8F4213019F1223029F1ED
:10024000F0E0EE0FFF1FE458FF4FA591B4918FB778
:10025000F894EC91611126C030953E233C938FBFFA
:1002600008952730A9F02830C9F0243049F780914B
:1002700080008F7D03C0809180008F778093800005
:10028000DFCF84B58F7784BDDBCF84B58F7DFBCF87
:100290008091B0008F778093B000D2CF8091B00072
:1002A0008F7DF9CF3E2BDACFCF93DF9390E0FC0127
:1002B000E656FF4F24918A579F4FFC018491882373
:1002C000D1F090E0880F991FFC01EE58FF4FA591E7
:1002D000B491FC01E458FF4FC591D49161110EC057
:1002E0009FB7F8948C91E22FE0958E238C93288110
:1002F000E223E8839FBFDF91CF9108958FB7F894F1
:10030000EC91E22BEC938FBFF6CF3FB7F89480913E
:10031000350590913605A0913705B091380526B581
:10032000A89B05C02F3F19F00196A11DB11D3FBF2D
:10033000BA2FA92F982F8827BC01CD01620F711DFC
:10034000811D911D42E0660F771F881F991F4A95F6
:10035000D1F708958F929F92AF92BF92CF92DF9282
:10036000EF92FF926B017C010E9485014B015C01C1
:10037000C114D104E104F104B9F00E9485016819A7
:1003800079098A099B09683E73408105910580F3CC
:1003900021E0C21AD108E108F10888EE880E83E056
:1003A000981EA11CB11CE4CFFF90EF90DF90CF907E
:1003B000BF90AF909F908F9008952FB7F894609161
:1003C00031057091320580913305909134052FBF2E
:1003D0000895FC01248135816217730720F4808120
:1003E0009181009729F41092290589E295E00895FA
:1003F000860F971F0895AF92BF92CF92DF92EF9230
:10040000FF920F931F93CF93DF936C017B018B01BE
:10041000040F151FEB015E01AE18BF08C017D1070E
:1004200059F06991D601ED91FC910190F081E02D98
:10043000C6010995892B79F7C501DF91CF911F91ED
:100440000F91FF90EF90DF90CF90BF90AF90089505
:10045000FC01538D448D252F30E0842F90E0821BCA
:10046000930B541710F0CF96089501970895FC014F
:10047000918D828D981761F0A28DAE0FBF2FB11DA7
:100480005D968C91928D9F5F9F73928F90E00895FF
:100490008FEF9FEF08950F931F930E94DD016093EC
:1004A000410570934205809343059093440589E389
:1004B00095E00E94370297FF1DC00E94DD01009168
:1004C0004105109142052091430530914405601B80
:1004D000710B820B930B00913D0510913E0520910D
:1004E0003F05309140056017710782079307F8F2C6
:1004F0008FEF9FEF1F910F910895FC01918D828DD9
:10050000981731F0828DE80FF11D858D90E00895E8
:100510008FEF9FEF0895FC01918D228D892F90E040
:10052000805C9F4F821B91098F739927089589E3FF
:1005300095E00E948B0221E0892B09F420E0822FB4
:10054000089580E090E0892B29F00E9497028111A4
:100550000C9400000895FC01A48DA80FB92FB11DC3
:10056000A35ABF4F2C91848D90E001968F739927E9
:10057000848FA689B7892C93A089B1898C918370C7
:1005800080648C93938D848D981306C00288F389C0
:10059000E02D80818F7D80830895EF92FF920F93ED
:1005A0001F93CF93DF93EC0181E0888F9B8D8C8D1F
:1005B00098131AC0E889F989808185FF15C09FB713
:1005C000F894EE89FF896083E889F98980818370D6
:1005D000806480839FBF81E090E0DF91CF911F9185
:1005E0000F91FF90EF900895F62E0B8D10E00F5FA6
:1005F0001F4F0F731127E02E8C8D8E110CC00FB67C
:1006000007FCFACFE889F989808185FFF5CFCE0113
:100610000E94AB02F1CFEB8DEC0FFD2FF11DE35AE1
:10062000FF4FF0829FB7F8940B8FEA89FB89808196
:100630008062CFCFCF93DF93EC01888D8823B9F010
:10064000AA89BB89E889F9898C9185FD03C08081DD
:1006500086FD0DC00FB607FCF7CF8C9185FFF2CF5A
:10066000808185FFEDCFCE010E94AB02E9CFDF9103
:10067000CF910895FF920F931F93CF93DF9302E0E2
:1006800011E0D0E0C0E0F801F1908F01CE010E94AE
:10069000570EF81621F06F2DCE010E945F0E2196A5
:1006A000CC30D10581F782E091E0DF91CF911F91AD
:1006B0000F91FF900895FC0101900020E9F7319718
:1006C000AF01481B590BBC0189E395E00C94FB0179
:1006D0008F929F92AF92BF920F931F93CF93DF930E
:1006E000CDB7DEB7A1970FB6F894DEBF0FBECDBF72
:1006F00019A2423008F44AE08E010F5D1F4F842E8C
:10070000912CB12CA12CA50194010E94D60EE62FAC
:10071000B901CA01EA30F4F4E05DD801EE938D012D
:10072000232B242B252B79F790E080E0109719F0EC
:10073000CD010E945B03A1960FB6F894DEBF0FBEF9
:10074000CDBFDF91CF911F910F91BF90AF909F9040
:100750008F900895E95CE1CFCF92DF92EF92FF9204
:10076000CF93DF936B017C016DE289E395E00E94FA
:10077000CD02EC0166277727CB016C197D098E0924
:100780009F094AE00E9468038C0F9D1FDF91CF9163
:10079000FF90EF90DF90CF900895CF93DF930E946A
:1007A0005B03EC0186E291E00E945B038C0F9D1FCE
:1007B000DF91CF910895CF93DF93BC01990F880B00
:1007C000990B97FF0CC00E94AC03EC0186E291E00C
:1007D0000E945B038C0F9D1FDF91CF9108954AE02B
:1007E0000E946803F2CFAF92BF92CF92DF92EF9256
:1007F000FF920F931F93CF93DF93DC01CD90DC909A
:100800001197C114D10439F01496CD91DC918C016B
:100810007601209761F4DF91CF911F910F91FF90A6
:10082000EF90DF90CF90BF90AF9008957501570182
:10083000BFEFAB1ABB0AF7018081082E000C990BA1
:100840000E94270D892B91F72197CC0DDD1D888102
:10085000082E000C990B0E94270D892B29F0CE152C
:10086000DF0510F02197F3CFAE014F5F5F4F4E19B8
:100870005F09D80115965C934E931497CE14DF044C
:1008800020F4B701C6010E942312D801ED91FC911A
:10089000119714968D919C91E80FF91F1082BBCF90
:1008A000FC0124813581232B39F421E0FB01808177
:1008B000882349F020E007C0808191810E942C129A
:1008C00021E0892BB9F7822F0895FC018081918165
:1008D000009711F00C94CD1008950F931F93CF93B0
:1008E000DF93EC0188819981009759F02A813B813F
:1008F0002617370730F081E0DF91CF911F910F91DC
:1009000008958B016F5F7F4F0E945611009759F039
:10091000998388831B830A832C813D81232B59F77C
:10092000FC011082E8CF80E0E7CFEF92FF920F93B7
:100930001F93CF93DF93EC017B018A01BA010E94E0
:100940006D0428813981811114C02115310519F0F8
:10095000C9010E94CD10198218821D821C821B823F
:100960001A82CE01DF91CF911F910F91FF90EF90EE
:1009700008951D830C83B701C9010E943512F1CF80
:10098000CF93DF93EC01FB018617970749F0608155
:1009900071816115710541F0448155810E94950472
:1009A000CE01DF91CF91089588819981009711F050
:1009B0000E94CD10198218821D821C821B821A820D
:1009C000EFCF1F920F920FB60F9211242F933F93E8
:1009D0008F939F93AF93BF93809131059091320590
:1009E000A0913305B09134053091300523E0230FF9
:1009F0002D3758F50196A11DB11D20933005809328
:100A0000310590933205A0933305B093340580915E
:100A1000350590913605A0913705B09138050196BE
:100A2000A11DB11D8093350590933605A093370520
:100A3000B0933805BF91AF919F918F913F912F91C6
:100A40000F900FBE0F901F90189526E8230F029667
:100A5000A11DB11DD2CF1F920F920FB60F9211247C
:100A60002F933F934F935F936F937F938F939F93B6
:100A7000AF93BF93EF93FF9389E395E00E94AB029E
:100A8000FF91EF91BF91AF919F918F917F916F9166
:100A90005F914F913F912F910F900FBE0F901F903C
:100AA00018951F920F920FB60F9211242F938F93C8
:100AB0009F93EF93FF93E0914905F0914A05808160
:100AC000E0914F05F091500582FD1BC0908180910F
:100AD00052058F5F8F7320915305821741F0E0918B
:100AE0005205F0E0E75CFA4F958F80935205FF9135
:100AF000EF919F918F912F910F900FBE0F901F90AC
:100B000018958081F4CF1F920F920FB60F92112487
:100B10002F933F934F935F936F937F938F939F9305
:100B2000AF93BF93CF93DF93EF93FF93809128050B
:100B3000C091FA05D0E087FF24C010928500109282
:100B40008400809128058F5F809328058091280577
:100B5000082E000C990B8C179D0724F48091280512
:100B60008C30C4F18091840090918500049680348B
:100B70009C4908F47AC08091840090918500049685
:100B800076C080912805082E000C990B8C179D07C4
:100B9000C4F6E09128058E2FEE0F990BFC01EE0FA5
:100BA000FF1FE80FF91FEA52FA4F808186FFC9CF75
:100BB000E09128058E2FEE0F990BFC01EE0FFF1F21
:100BC000E80FF91FEA52FA4F808160E08F730E94AC
:100BD0000801B7CF2091840030918500E09128056D
:100BE0008E2FEE0F990BFC01EE0FFF1FE80FF91F80
:100BF000EA52FA4F81819281820F931F909389006C
:100C000080938800E09128058E2FEE0F990BFC0150
:100C1000EE0FFF1FE80FF91FEA52FA4F808186FF9F
:100C200011C0E09128058E2FEE0F990BFC01EE0FFD
:100C3000FF1FE80FF91FEA52FA4F808161E08F73BE
:100C40000E940801FF91EF91DF91CF91BF91AF9189
:100C50009F918F917F916F915F914F913F912F91D4
:100C60000F900FBE0F901F90189580E49CE9909311
:100C70008900809388008FEF80932805E3CFCF927F
:100C8000DF92EF92FF920F931F93E82FF92F05C089
:100C9000015011092109310961F1908196239417BE
:100CA000B9F305C0015011092109310911F19081F1
:100CB00096239413F7CFC12CD12CE12CF12C0AC030
:100CC0008FEFC81AD80AE80AF80A0C151D052E0578
:100CD0003F0579F080818623841791F36C2D7D2D5B
:100CE0008E2D9F2D1F910F91FF90EF90DF90CF9051
:100CF000089560E070E080E090E01F910F91FF9018
:100D0000EF90DF90CF900895CF93DF93DC0114969E
:100D1000ED91FC916E177F0728F54115510511F1F2
:100D20009F01261B370B4217530708F49A01DB017A
:100D3000EC0188819981E21BF30BFD83EC83AF0109
:100D4000461B570B260F371FBC01620F731F8A0FFC
:100D50009B1F0E943C12E881F9818C819D81E80FE4
:100D6000F91F1082DF91CF91089510923C051092E7
:100D70003B0588EE93E0A0E0B0E080933D059093C2
:100D80003E05A0933F05B093400588E191E0909324
:100D90003A058093390585EC90E090934605809361
:100DA000450584EC90E0909348058093470580ECDE
:100DB00090E090934A058093490581EC90E09093F0
:100DC0004C0580934B0582EC90E090934E05809308
:100DD0004D0586EC90E09093500580934F0510925E
:100DE00052051092530510925405109255058091AA
:100DF000FA058C3058F591E0980F9093FA0580939E
:100E0000030690E0FC01EE0FFF1FE80FF91FEA5206
:100E1000FA4F88EB9BE0928381830E94DD010E9460
:100E2000350D6093FF057093000680930106909343
:100E300002060E94DD010E94350D6093FB05709350
:100E4000FC058093FD059093FE0508958FEF809338
:100E50000306E3CFCF93DF93CDB7DEB76E970FB620
:100E6000F894DEBF0FBECDBF789484B5826084BD98
:100E700084B5816084BD85B5826085BD85B581609E
:100E800085BD80916E00816080936E00109281001C
:100E900080918100826080938100809181008160D7
:100EA0008093810080918000816080938000809198
:100EB000B10084608093B1008091B0008160809324
:100EC000B00080917A00846080937A0080917A00EB
:100ED000826080937A0080917A00816080937A00AA
:100EE00080917A00806880937A001092C100E0912E
:100EF0004905F0914A0582E08083E0914505F09133
:100F000046051082E0914705F09148058FEC8083FB
:100F100010925105E0914D05F0914E0586E08083D9
:100F2000E0914B05F0914C05808180618083E091D8
:100F30004B05F0914C05808188608083E0914B05E2
:100F4000F0914C05808180688083E0914B05F091A1
:100F50004C0580818F7D808389E291E00E94CD03E2
:100F60008FEF93E00E94570E833409F4EDC063E4E1
:100F70008FEF93E00E945F0E0E943A0361E084E0ED
:100F80000E94540160E085E00E94540180910306B4
:100F90008C3008F051C061E083E00E9454018091E0
:100FA0000306282F30E0F901EE0FFF1FE20FF31FB9
:100FB000EA52FA4F9081907C9360908310920406DD
:100FC000109205062CE0622F0E941F10829FB00134
:100FD000112430E020E0AB01420F531FFA01EE0F65
:100FE000FF1FE40FF51FEA52FA4F908196FD16C0DD
:100FF0002F5F3F4F2C30310571F781110FC01092D8
:10100000800082E08093810010928500109284001D
:10101000B19A80916F00826080936F00E091030627
:101020008E2F90E0FC01EE0FFF1FE80FF91FEA5230
:10103000FA4F80818064808380910801909109013A
:101040000E948C0036E0232E312C94E0A92EB12C86
:1010500020E0822E20E0922E61E084E00E940801D0
:1010600083E290E00197F1F760E084E00E940801DC
:10107000EFE9F0E06491EBE8F0E08491E82FF0E034
:10108000EE0FFF1FE859FF4F8591949100E412E4A1
:101090002FE030E0462F0E943F0661157105810563
:1010A000910529F06F5F7F4F8F4F9F4F9F70072EE5
:1010B000000C880B990B0E94370D2DEC3CEC48E698
:1010C00052E40E94740F60932C0570932D05809359
:1010D0002E0590932F0589E395E00E948B02181648
:1010E00019060CF048C11A8E198E1C8E1B8E1E8E8E
:1010F0001D8E50E040E06CEF74E0CE0149960E94F6
:1011000095040E944B0297FD31C08A30910571F120
:1011100089831A826D8C7E8CFFEF6F1A7F0AB30170
:10112000CE0149960E946D04882359F3298D3A8D8A
:101130008D8D9E8DBE016F5F7F4F820F931F0E942A
:1011400035127E8E6D8EDDCF02E011E0F12CE12CA8
:10115000C7010E94570EF80181938F01FFEFEF1A2C
:10116000FF0A4CE0E416F10499F708CF698C7A8CF9
:101170006114710471F0F30181913F01882349F0FA
:10118000082E000C990B0E941312F30131978083F3
:10119000F2CFCE0149960E94F3031C8A1B8A1E8A55
:1011A0001D8A188E1F8ABE01675E7F4FCE0143964F
:1011B0000E94C00461E771E0CE0143960E94500492
:1011C000882349F18AE391E00E94CD0386E591E00E
:1011D0000E94CD0386E791E00E94CD0384E991E06F
:1011E0000E94CD038BEB91E00E94CD038EED91E048
:1011F0000E94CD0382E092E00E94CD0389E292E05A
:101200000E94CD0388E492E00E94CD0389E992E038
:101210000E94CD03A8C062EB71E0CE0143960E940C
:101220005004882369F184EB92E00E94CD038DEC99
:1012300092E00E945B0380910201909103010E9461
:10124000DB0381EE92E00E945B03809104019091A8
:1012500005010E94DB038CEE92E00E945B0380910B
:101260000601909107010E94DB0389EF92E00E9442
:101270005B0380910801909109010E94DB03C6CFB6
:101280006EE871E0CE0143960E945004882389F0F5
:1012900081E090E020912A0530912B05232B11F05D
:1012A00090E080E090932B0580932A0587E093E0FF
:1012B000AFCF60E472E0CE0143960E9450048823D1
:1012C00019F08BE193E0A4CF6BE273E0CE0143967B
:1012D0000E945004882379F08091080190910901BF
:1012E0000E948C0085E090E09093010180930001C2
:1012F00081E393E08DCF60E773E0CE0143960E94D7
:1013000050048823C9F080910601909107010E9442
:101310008C000E94DD010E94350D6093FF057093E3
:1013200000068093010690930206309201012092FC
:10133000000185E793E06CCF63EB73E0CE01439649
:101340000E945004882309F485C080910001909187
:1013500001018530910509F075C081E090E090931E
:10136000010180930001CE0143960E946504CE01E5
:1013700049960E94650480912A0590912B05892B3E
:1013800009F441C083EF94E00E945B036091000187
:1013900070910101072E000C880B990B97FFA9C1D2
:1013A0000E94AC038BEF94E00E945B038DEF94E00E
:1013B0000E945B0340902C0550902D0560902E05F7
:1013C00070902F05A3019201C301B2010E941A106F
:1013D000882309F492C18EE095E00E945B038BEFB5
:1013E00094E00E945B038AE195E00E945B03809198
:1013F0000001909101010597029708F010C281E267
:1014000095E00E94CD03809100019091010182300E
:10141000910509F46CC20CF005C2019709F444C2AD
:1014200064E670E080E090E00E94AA0181149104DB
:1014300009F412CE0E949702882309F406CE0E9476
:10144000000003CE069719F483E090E088CF88EB84
:1014500093E0DECE70E060E0CE0143960E94E901A9
:10146000FC018081833799F561E070E0CE014396FD
:101470000E94E901FC018081853649F562E070E057
:10148000CE0143960E94E901FC0180818437F9F482
:1014900063E070E0CE0143960E94E901FC01808187
:1014A0008032A9F44B895C89FA012F89388D240F89
:1014B000351F90E080E02E173F07A9F04115510538
:1014C00021F06081603209F401963196F4CF64ED29
:1014D00073E0CE0143960E945004882309F4F6C0BD
:1014E00088ED93E095CE0297D9F71E861D86188A5F
:1014F0001F861A8A198ABE016D5E7F4FCE010D9636
:101500000E94C0046D847E846114710469F0F3014B
:101510008081882349F0082E000C990B0E941B1231
:10152000F30181933F01F3CF43E050E070E060E0CE
:10153000CE010D960E948406CE010D960E94F30303
:1015400018861F821A8619861C861B8650E040E08A
:101550006CEF74E0CE0107960E9495041A821982FE
:101560001C821B821E821D8250E040E06CEF74E002
:10157000CE0101960E9495048D859E85FC012989E6
:101580003A89712C612C2615370561F1009709F411
:1015900054C04081403209F050C0BE01635F7F4FAC
:1015A000CE0107960E94C0044FEF5FEFB301CE015A
:1015B00007960E948406CE0107960E94F303BE019F
:1015C000635F7F4FCE0101960E94C0044B855C850E
:1015D00070E060E0CE0101960E948406CE01019683
:1015E0000E94F30389819A81412C512C320100978A
:1015F00019F00E94EB0C2B0167EF73E0CE01079608
:101600000E9450048823F1F050920301409202019D
:101610000E943A038BE594E00E94CD030E943A03B6
:10162000CE0101960E946504CE0107960E946504D2
:10163000CE010D960E94650496CE4FEF641A740A8F
:101640003196A1CF69E074E0CE0107960E94500464
:10165000882329F05092050140920401D9CF62E11C
:1016600074E0CE0107960E945004882329F050921E
:10167000070140920601CCCF6DE174E0CE010796E0
:101680000E945004882329F05092090140920801D9
:10169000BFCF69E274E0CE0107960E945004882310
:1016A00029F050920B0140920A01B2CF67E374E037
:1016B000CE0107960E945004882329F050920D0114
:1016C00040920C01A5CF86E494E0A6CF6AE674E0D0
:1016D000CE0143960E945004882341F06FEF8FEFB4
:1016E00093E00E945F0E89E794E092CD89EB94E04D
:1016F0008FCD4AE00E94680355CE73016201E894E1
:10170000F7F82FEF3FEF4FE75FE7C701B6010E9401
:101710001A1081110DC02FEF3FEF4FE75FE7C701B0
:10172000B6010E94300D18161CF482E195E055CEEA
:101730002FEF3FEF4FE75FE4C301B2010E941510A6
:1017400018161CF486E195E048CE2FEF3FEF4FE7E7
:101750005FECC301B2010E94300D87FDF3CF20E0A2
:1017600030E0A901C301B2010E94300D87FF09C01A
:101770006DE289E395E00E94CD0277FA709477F8E4
:1017800070942AE037ED43EA5BE3C301B2010E94A3
:10179000080F6B017C010E94E60F2B013C010E94A7
:1017A000350D9B01AC01C701B6010E94070F6B010B
:1017B0007C014AE0C301B2010E9468036EE289E342
:1017C00095E00E94CD0220E030E040E251E4C70104
:1017D000B6010E94960D6B017C010E94E60F2B0161
:1017E000712C612C4AE0C301B2010E946803C3015D
:1017F000B2010E94350D9B01AC01C701B6010E94E8
:10180000070F20E030E040E251E40E94960D0E9474
:10181000E60F90E080E04AE00E946803E0CD83EBB1
:1018200093E0EFCD8330910509F47AC0049709F075
:10183000F7CD6091020170910301072E000C880B17
:10184000990B0E94370D20912C0530912D05409168
:101850002E0550912F050E94151087FF3BC00E9456
:10186000DD010E94350D2091FB053091FC05409172
:10187000FD055091FE050E94070F2B013C01609170
:101880000C0170910D01072E000C880B990B0E9422
:10189000370D9B01AC01C301B2010E94151087FDF9
:1018A000BFCD81E090E01EC0609102017091030104
:1018B000072E000C880B990B0E94370D20912C05E8
:1018C00030912D0540912E0550912F050E94151045
:1018D00087FDA6CD80910601909107010E948C00A2
:1018E00082E090E0909301018093000199CD609196
:1018F0000A0170910B01072E000C880B990B0E94B6
:10190000AA010E94DD010E94350D6093FF057093CE
:101910000006809301069093020683E090E0E2CFF8
:101920000E94DD010E94350D2091FF0530910006D7
:1019300040910106509102060E94070F2B013C01C5
:101940006091040170910501072E000C880B990B22
:101950000E94370D9B01AC01C301B2010E9415101A
:1019600087FD16C080910801909109010E948C00AA
:101970000E94DD010E94350D6093FB057093FC050C
:101980008093FD059093FE05B0920101A0920001A5
:101990006091020170910301072E000C880B990BD6
:1019A0000E94370D20912C0530912D0540912E0578
:1019B00050912F050E94151087FD32CD0E94DD0148
:1019C0000E94350D6093FF05709300068093010619
:1019D0009093020625CD1F93FC0199278827BC010F
:1019E000E89411911032E9F3193010F01E30C8F369
:1019F0001B3251F01D3249F4689406C00E94120D4A
:101A0000610F711D811D911D119110531A30B0F39A
:101A10003EF490958095709561957F4F8F4F9F4FC5
:101A20001F910895592F482F372F262F660F771FA4
:101A3000881F991F660F771F881F991F620F731FDA
:101A4000841F951F660F771F881F991F0895911196
:101A50000C94030E803219F089508550C8F7089510
:101A60000E94720D08F481E00895E89409C097FB84
:101A70003EF490958095709561957F4F8F4F9F4F65
:101A80009923A9F0F92F96E9BB279395F6958795A9
:101A900077956795B795F111F8CFFAF4BB0F11F46C
:101AA00060FF1BC06F5F7F4F8F4F9F4F16C0882313
:101AB00011F096E911C0772321F09EE8872F762F49
:101AC00005C0662371F096E8862F70E060E02AF08A
:101AD0009A95660F771F881FDAF7880F9695879576
:101AE00097F90895990F0008550FAA0BE0E8FEEF4B
:101AF00016161706E807F907C0F012161306E407D2
:101B0000F50798F0621B730B840B950B39F40A26CA
:101B100061F0232B242B252B21F408950A2609F4A8
:101B2000A140A6958FEF811D811D08950E94A90DEA
:101B30000C941D0E0E940F0E38F00E94160E20F01D
:101B4000952311F00C94060E0C940C0E11240C9499
:101B5000510E0E942E0E70F3959FC1F3950F50E029
:101B6000551F629FF001729FBB27F00DB11D639F4F
:101B7000AA27F00DB11DAA1F649F6627B00DA11DF5
:101B8000661F829F2227B00DA11D621F739FB00D9B
:101B9000A11D621F839FA00D611D221F749F33270B
:101BA000A00D611D231F849F600D211D822F762FA4
:101BB0006A2F11249F5750409AF0F1F088234AF081
:101BC000EE0FFF1FBB1F661F771F881F91505040ED
:101BD000A9F79E3F510580F00C94060E0C94510E0F
:101BE0005F3FE4F3983ED4F3869577956795B79574
:101BF000F795E7959F5FC1F7FE2B880F911D96958E
:101C0000879597F9089599278827089597F99F67E9
:101C100080E870E060E008959FEF80EC0895002474
:101C20000A941616170618060906089500240A9441
:101C300012161306140605060895092E0394000CC7
:101C400011F4882352F0BB0F40F4BF2B11F460FF56
:101C500004C06F5F7F4F8F4F9F4F089557FD90587F
:101C6000440F551F59F05F3F71F04795880F97FB60
:101C7000991F61F09F3F79F087950895121613061A
:101C80001406551FF2CF4695F1DF08C01616170649
:101C90001806991FF1CF869571056105089408957E
:101CA000E894BB2766277727CB0197F90895F99920
:101CB000FECF92BD81BDF89A992780B50895262F51
:101CC000F999FECF1FBA92BD81BD20BD0FB6F89421
:101CD000FA9AF99A0FBE01960895052E97FB1EF405
:101CE00000940E94840E57FD07D00E94D60E07FC78
:101CF00003D04EF40C94840E509540953095219568
:101D00003F4F4F4F5F4F0895909580957095619527
:101D10007F4F8F4F9F4F08950E94F80EA59F900D03
:101D2000B49F900DA49F800D911D11240895B7FFBD
:101D30000C948C0E0E948C0E821B930B08952F9294
:101D40003F924F925F926F927F928F929F92AF924B
:101D5000BF92CF92DF92EF92FF920F931F93CF9398
:101D6000DF93CDB7DEB7CA1BDB0B0FB6F894DEBF2F
:101D70000FBECDBF09942A88398848885F846E8455
:101D80007D848C849B84AA84B984C884DF80EE809F
:101D9000FD800C811B81AA81B981CE0FD11D0FB6A8
:101DA000F894DEBF0FBECDBFED010895A1E21A2E5B
:101DB000AA1BBB1BFD010DC0AA1FBB1FEE1FFF1FEF
:101DC000A217B307E407F50720F0A21BB30BE40B3F
:101DD000F50B661F771F881F991F1A9469F7609586
:101DE0007095809590959B01AC01BD01CF01089540
:101DF000A29FB001B39FC001A39F700D811D11244C
:101E0000911DB29F700D811D1124911D0895505890
:101E1000BB27AA270E941F0F0C941D0E0E940F0EB5
:101E200038F00E94160E20F039F49F3F19F426F482
:101E30000C940C0E0EF4E095E7FB0C94060EE92FC3
:101E40000E942E0E58F3BA1762077307840795078E
:101E500020F079F4A6F50C94500E0EF4E0950B2EBC
:101E6000BA2FA02D0B01B90190010C01CA01A001EC
:101E70001124FF27591B99F0593F50F4503E68F147
:101E80001A16F040A22F232F342F4427585FF3CF88
:101E9000469537952795A795F0405395C9F77EF459
:101EA0001F16BA0B620B730B840BBAF09150A1F0A2
:101EB000FF0FBB1F661F771F881FC2F70EC0BA0F28
:101EC000621F731F841F48F4879577956795B795B0
:101ED000F7959E3F08F0B0CF9395880F08F09927AB
:101EE000EE0F9795879508950E94880F0C941D0E0C
:101EF0000E94160E58F00E940F0E40F029F45F3F2A
:101F000029F00C94060E51110C94510E0C940C0EE9
:101F10000E942E0E68F39923B1F3552391F3951B7C
:101F2000550BBB27AA2762177307840738F09F5FFA
:101F30005F4F220F331F441FAA1FA9F335D00E2E67
:101F40003AF0E0E832D091505040E695001CCAF7D4
:101F50002BD0FE2F29D0660F771F881FBB1F261797
:101F600037074807AB07B0E809F0BB0B802DBF016E
:101F7000FF2793585F4F3AF09E3F510578F00C943D
:101F8000060E0C94510E5F3FE4F3983ED4F3869511
:101F900077956795B795F7959F5FC9F7880F911D5E
:101FA0009695879597F90895E1E0660F771F881F4A
:101FB000BB1F621773078407BA0720F0621B730BFD
:101FC000840BBA0BEE1F88F7E09508950E94360E39
:101FD00088F09F5798F0B92F9927B751B0F0E1F0EA
:101FE000660F771F881F991F1AF0BA95C9F714C09A
:101FF000B13091F00E94500EB1E008950C94500E53
:10200000672F782F8827B85F39F0B93FCCF38695D2
:1020100077956795B395D9F73EF49095809570952F
:1020200061957F4F8F4F9F4F08950E94720D08F466
:102030008FEF08950E94720D880B990B0895991BDC
:1020400079E004C0991F961708F0961B881F7A95AF
:10205000C9F780950895EE0FFF1F0590F491E02DCC
:1020600009940F931F93CF93DF938230910510F45F
:1020700082E090E0E0910806F091090630E020E06F
:10208000B0E0A0E0309799F42115310509F44AC079
:10209000281B390B24303105D8F58A819B816115C5
:1020A000710589F1FB0193838283FE0111C0408198
:1020B00051810281138148175907E0F048175907E9
:1020C00099F4109761F012960C93129713961C9343
:1020D0003296CF01DF91CF911F910F910895009318
:1020E000080610930906F4CF2115310551F0421767
:1020F000530738F0A901DB019A01BD01DF01F801A6
:10210000C1CFEF01F9CF9093090680930806CDCF98
:10211000FE01E20FF31F819391932250310939831D
:102120002883D7CF2091060630910706232B41F450
:10213000209110013091110130930706209306067B
:1021400020910E0130910F012115310541F42DB779
:102150003EB74091120150911301241B350BE091C1
:102160000606F0910706E217F307A0F42E1B3F0BBB
:102170002817390778F0AC014E5F5F4F24173507F9
:1021800048F04E0F5F1F5093070640930606819359
:1021900091939FCFF0E0E0E09CCFCF93DF93009747
:1021A000E9F0FC01329713821282A0910806B091E7
:1021B0000906ED0130E020E01097A1F42081318183
:1021C000820F931F209106063091070628173907C2
:1021D00009F061C0F0930706E0930606DF91CF9106
:1021E0000895EA01CE17DF07E8F54A815B819E0179
:1021F00041155105B1F7E901FB83EA8349915991F2
:10220000C40FD51FEC17FD0761F480819181029600
:10221000840F951FE90199838883828193819B8331
:102220008A83F0E0E0E012968D919C9113970097DD
:10223000B9F52D913C911197CD010296820F931F14
:1022400020910606309107062817390739F630978E
:1022500051F51092090610920806B0930706A09354
:102260000606BCCFD383C28340815181840F951F62
:10227000C817D90761F44E5F5F4F88819981480F75
:10228000591F518340838A819B81938382832115C7
:10229000310509F0B0CFF0930906E09308069ECF10
:1022A000FD01DC01C0CF13821282D7CFB0E0A0E0E5
:1022B000ECE5F1E10C94A10E8C01009751F4CB01F7
:1022C0000E9431108C01C801CDB7DEB7E0E10C945B
:1022D000BD0EFC01E60FF71F9C0122503109E217E9
:1022E000F30708F49DC0D901CD91DC911197C61771
:1022F000D70798F0C530D10530F3CE010497861783
:10230000970708F3C61BD70B2297C193D1936D9300
:102310007C93CF010E94CD10D6CF5B01AC1ABD0AD1
:102320004C018C0E9D1EA0910806B0910906512CFF
:10233000412CF12CE12C109731F5809106069091FB
:1023400007068815990509F05CC04616570608F07F
:1023500058C080910E0190910F01009741F48DB704
:102360009EB74091120150911301841B950BE81701
:10237000F90708F055C0F0930706E0930606F90147
:1023800071836083A0CF8D919C91119712966C9070
:10239000129713967C901397A815B90559F56C01FF
:1023A00042E0C40ED11CCA14DB0420F1AC014A196E
:1023B0005B09DA011296159780F06282738251836D
:1023C0004083D9016D937C93E114F10471F0D7013E
:1023D0001396FC93EE93129776CF22968C0F9D1F47
:1023E000F90191838083F301EFCFF0930906E09325
:1023F000080669CF4816590608F42C017D01D3015F
:102400009ACFCB010E9431107C01009749F0AE01B8
:10241000B8010E942312C8010E94CD10870153CF3A
:1024200010E000E050CF9111089581548A5108F4D2
:10243000805E855A08959111089581568A5108F455
:10244000805285580895FB01DC0102C001900D9275
:1024500041505040D8F70895FB01DC018D91019067
:1024600080190110D9F3990B0895FB01DC0101904B
:102470000D920020E1F70895FB01DC01415050402E
:1024800048F001900D920020C9F701C01D92415003
:102490005040E0F70895F894FFCF01001900881329
:1024A000000096002003840300000A06800000005C
:1024B0000000CD02FB0128021A038B0237027D02C5
:1024C0000D0A0070726F6772616D6D2073746172B6
:1024D000746564000A3D3D3D20415641494C4142EE
:1024E0004C4520434F4D4D414E4453203D3D3D0012
:1024F00068656C7020202020202020202020202DA6
:102500002053686F7720746869732068656C700069
:102510006465627567202020202020202020202D47
:1025200020746F67676C652064656275670073650A
:102530007474696E6773202020202020202D205382
:10254000686F772063757272656E7420736574743A
:10255000696E6773006F70656E2020202020202038
:10256000202020202D204D616E75616C6C79206FCC
:1025700070656E206C696400636C6F736520202049
:10258000202020202020202D204D616E75616C6C54
:102590007920636C6F7365206C6964006175746F7A
:1025A00020202020202020202020202D2061757434
:1025B0006F6D61746963206C696420636F6E7472FF
:1025C0006F6C0076657273696F6E2020202020206A
:1025D00020202D207072696E742076657273696F89
:1025E0006E007365742020202020202020202020D1
:1025F000202D206368616E6765732073657474694C
:102600006E67732C2074616B657320322061726772
:10261000756D656E74732873657474696E67206E6A
:10262000616D6520616E64206E65772076616C75E2
:102630006529003D3D3D3D3D3D3D3D3D3D3D3D3DF3
:102640003D3D3D3D3D3D3D3D3D3D3D3D3D000A3D2A
:102650003D3D2043555252454E5420534554544914
:102660004E47533D3D3D0041435449564154494F27
:102670004E5F4845494748543A20004341505F5413
:10268000494D453A20004F50454E5F414E474C451D
:102690003A2000434C4F53455F414E474C453A204A
:1026A000006465627567206D6F6465207377697477
:1026B00063686564000A76657273696F6E3A2031EB
:1026C0002E312E3000636C6F7365000A4C696420F4
:1026D0006D616E75616C6C7920636C6F7365642ECF
:1026E0002053656E6420276175746F2720746F20F6
:1026F00072657475726E20746F206175746F6D6190
:10270000746963206D6F64652E006F70656E000ADA
:102710004C6964206D616E75616C79206F70656EB7
:1027200065642E2053656E6420276175746F2720C1
:10273000746F2072657475726E20746F2061757489
:102740006F6D61746963206D6F64652E00617574CF
:102750006F000A416C726561647920696E20617551
:10276000746F6D61746963206D6F64652E007365AD
:1027700074000A496E636F7272656374206E756DC2
:10278000626572206F6620617267756D656E747325
:102790000041435449564154494F4E5F48454947CB
:1027A0004854004341505F54494D45004F50454EF9
:1027B0005F414E474C4500434C4F53455F414E47A8
:1027C0004C45004C49445F4F50454E5F54494D4580
:1027D000004C49445F434C4F53455F54494D4500BD
:1027E000496E76616C69642073657474696E6720E4
:1027F0006E616D65000A56616C7565206368616E77
:102800006765640072657365745F73657474696E7F
:10281000677300546865206E6578742074696D650F
:1028200020796F75207265626F6F742C20746865F3
:102830002073657474696E67732077696C6C2062AD
:102840006520726573657420746F206465666175B8
:102850006C74000A436F6D6D616E64206E6F74203E
:10286000666F756E642E2054797065202768656CDC
:10287000702720746F207365652061206C69737404
:10288000206F6620636F6D6D616E64730073746199
:1028900074653A2000090073656E736F7244697342
:1028A00074616E63653A20006E616E00696E660049
:1028B0006F7666006D6F64653A20006D616E7561BC
:0228C0006C00AA
:107800000C94343C0C94513C0C94513C0C94513CE1
:107810000C94513C0C94513C0C94513C0C94513CB4
:107820000C94513C0C94513C0C94513C0C94513CA4
:107830000C94513C0C94513C0C94513C0C94513C94
:107840000C94513C0C94513C0C94513C0C94513C84
:107850000C94513C0C94513C0C94513C0C94513C74
:107860000C94513C0C94513C11241FBECFEFD8E036
:10787000DEBFCDBF11E0A0E0B1E0ECE9FFE702C060
:1078800005900D92A230B107D9F712E0A2E0B1E065
:1078900001C01D92AD30B107E1F70E942D3D0C945F
:1078A000CC3F0C94003C982F959595959595959582
:1078B000905D8F708A307CF0282F295A8091C0000B
:1078C00085FFFCCF9093C6008091C00085FFFCCF60
:1078D0002093C6000895282F205DF0CF982F809127
:1078E000C00085FFFCCF9093C6000895EF92FF92F1
:1078F0000F931F93EE24FF2487018091C00087FD22
:1079000017C00894E11CF11C011D111D81E4E8164B
:1079100082E4F8068FE0080780E0180770F3E09132
:107920000401F091050109958091C00087FFE9CF1E
:107930008091C6001F910F91FF90EF9008950E94D3
:10794000763C982F8091C00085FFFCCF9093C600B5
:1079500091362CF490330CF09053892F089597555D
:10796000892F08951F930E949F3C182F0E949F3CCF
:107970001295107F810F1F9108951F93182F882350
:1079800021F00E94763C1150E1F71F9108951F935A
:10799000182F0E94763C803249F0809103018F5F5E
:1079A000809303018530C1F01F9108958091C0003C
:1079B00085FFFCCF84E18093C6008091C00085FFE5
:1079C000FCCF1093C6008091C00085FFFCCF80E102
:1079D0008093C6001F910895E0910401F091050184
:1079E00009951F9108950E94763C803241F0809164
:1079F00003018F5F80930301853081F008958091AA
:107A0000C00085FFFCCF84E18093C6008091C00058
:107A100085FFFCCF80E18093C6000895E0910401CA
:107A2000F09105010995089540E951E08823A1F0FE
:107A30002D9A28EE33E0FA013197F1F721503040CA
:107A4000D1F72D9828EE33E0FA013197F1F7215064
:107A50003040D1F7815061F708953F924F925F9285
:107A60006F927F928F929F92AF92BF92CF92DF924E
:107A7000EF92FF920F931F93CF93DF93000080E16B
:107A80008093C4001092C50088E18093C10086E015
:107A90008093C2005098589A259A81E00E94143D24
:107AA00024E1F22E9EE1E92E85E9D82E0FE0C02ECA
:107AB00010E1B12EAA24A394B1E49B2EA6E58A2E50
:107AC000F2E57F2EE0E26E2E79E4572E63E5462E36
:107AD00050E5352E0E94763C8033B1F18133B9F107
:107AE000803409F46FC0813409F476C0823409F41B
:107AF00085C0853409F488C0803531F1823521F1A3
:107B0000813511F1853509F485C0863509F48DC0BC
:107B1000843609F496C0843709F403C1853709F423
:107B200072C1863709F466C0809103018F5F80932C
:107B30000301853079F6E0910401F0910501099582
:107B40000E94763C803351F60E94F33CC3CF0E94E2
:107B5000763C803249F78091C00085FFFCCFF092DF
:107B6000C6008091C00085FFFCCF9092C600809136
:107B7000C00085FFFCCF8092C6008091C00085FFC9
:107B8000FCCF7092C6008091C00085FFFCCF609250
:107B9000C6008091C00085FFFCCF5092C600809146
:107BA000C00085FFFCCF4092C6008091C00085FFD9
:107BB000FCCF3092C6008091C00085FFFCCFB09210
:107BC000C60088CF0E94763C863808F4BDCF0E945C
:107BD000763C0E94F33C7ECF0E94763C803809F4CC
:107BE0009CC0813809F40BC1823809F43CC1883942
:107BF00009F48FC080E00E94C73C6CCF84E10E94F2
:107C0000BD3C0E94F33C66CF85E00E94BD3C0E94D3
:107C1000F33C60CF0E94763C809306010E94763C44
:107C2000809307010E94F33C55CF0E94763C80333D
:107C300009F41DC183E00E94BD3C80E00E94C73C66
:107C400049CF0E94763C809309020E94763C809343
:107C5000080280910C028E7F80930C020E94763C79
:107C6000853409F415C18091080290910902892B8D
:107C700089F000E010E00E94763CF801E85FFE4FDA
:107C800080830F5F1F4F80910802909109020817AF
:107C9000190788F30E94763C803209F045CF809125
:107CA0000C0280FF01C16091060170910701660F0F
:107CB000771F7093070160930601A0910802B091AD
:107CC00009021097C9F0E8E0F1E09B01AD014E0F09
:107CD0005F1FF999FECF32BD21BD819180BDFA9A17
:107CE000F99A2F5F3F4FE417F50799F76A0F7B1F4B
:107CF00070930701609306018091C00085FFFCCF5F
:107D0000F092C6008091C00085FFFCCFB092C60003
:107D1000E1CE83E00E94C73CDDCE82E00E94C73CFA
:107D2000D9CE0E94763C809309020E94763C8093D3
:107D300008028091060190910701880F991F909386
:107D40000701809306010E94763C853409F4A6C0A1
:107D500080910C028E7F80930C020E94763C8032D0
:107D600009F0B8CE8091C00085FFFCCFF092C6002C
:107D7000609108027091090261157105B9F140E046
:107D800050E080910C02A82FA170B82FB27011C0E2
:107D9000BB2309F45CC0E0910601F0910701319624
:107DA000F0930701E09306014F5F5F4F46175707B7
:107DB000E8F4AA2369F3F999FECF209106013091E6
:107DC000070132BD21BDF89A90B58091C00085FFB2
:107DD000FCCF9093C6002F5F3F4F30930701209355
:107DE00006014F5F5F4F4617570718F38091C00099
:107DF00085FDE5CE8091C00085FFF8CFE0CE81E023
:107E00000E94C73C67CE0E94763C803209F08CCE3F
:107E10008091C00085FFFCCFF092C6008091C00029
:107E200085FFFCCFE092C6008091C00085FFFCCFAB
:107E3000D092C6008091C00085FFFCCFC092C600E2
:107E40008091C00085FFFCCFB092C60043CEE09188
:107E50000601F091070194918091C00085FFFCCF4D
:107E60009093C6009CCF80E10E94C73C33CE0E9415
:107E7000763C0E94763C182F0E94763C112309F430
:107E800083C0113009F484C08FE00E94C73C22CE29
:107E900080910C02816080930C02E5CE80910C02EF
:107EA000816080930C0259CF809107018823880F4D
:107EB000880B8A2180930B02809106019091070123
:107EC000880F991F90930701809306018091080203
:107ED00080FF09C080910802909109020196909359
:107EE000090280930802F894F999FECF1127E091D6
:107EF0000601F0910701C8E0D1E08091080290915D
:107F00000902103091F40091570001700130D9F34B
:107F100003E000935700E89500915700017001308D
:107F2000D9F301E100935700E89509901990009169
:107F3000570001700130D9F301E000935700E89534
:107F40001395103498F011270091570001700130FB
:107F5000D9F305E000935700E895009157000170B0
:107F60000130D9F301E100935700E895329602976A
:107F700009F0C7CF103011F00296E5CF112480919F
:107F8000C00085FFB9CEBCCE8EE10E94C73CA2CD19
:0E7F900085E90E94C73C9ECDF894FFCF80008B
:00000001FF
