:020000040000FA
:100000000C9462000C948A000C948A000C948A0070
:100010000C948A000C948A000C948A000C948A0038
:100020000C948A000C948A000C948A000C94A1040D
:100030000C948A000C948A000C948A000C948A0018
:100040000C94FF030C948A000C946F040C944904E4
:100050000C948A000C948A000C948A000C948A00F8
:100060000C948A000C948A000000000023002600F3
:10007000290000000000240027002A0000000000E2
:10008000250028002B0004040404040404040202D4
:100090000202020203030303030301020408102007
:1000A0004080010204081020010204081020000012
:1000B0000008000201000003040700000000000027
:1000C0000000A20511241FBECFEFD8E0DEBFCDBFD8
:1000D00014E0A0E0B1E0EEE7F0E202C005900D927E
:1000E000AE33B107D9F725E0AEE3B4E001C01D920D
:1000F000AF31B207E1F710E0C2E6D0E004C02197CB
:10010000FE010E94340EC136D107C9F70E941706BE
:100110000C943D100C940000CF92DF92EF92FF926E
:10012000DC01A03282E0B807D4F5A53BB10514F09C
:10013000A4EBB0E04091190528E830E0241B310918
:1001400047FD3395220F331F220F331F6901330FF1
:10015000EE08FF0840911A0528E532E0241B31091A
:1001600047FD3395220F331F220F331F032E000C40
:10017000440B550B2C193D094E095F09B7FF02C00E
:10018000B0E0A0E00E94A00C24EB30E040E050E0A2
:100190000E94760CC20ED31EE41EF51ED601E0911D
:1001A0001805EC3080F52091190588E890E0821B55
:1001B000910927FD9395880F991F880F991FA817FC
:1001C000B90784F020911A0588E592E0821B910915
:1001D00027FD9395880F991F880F991FA817B907B6
:1001E0000CF4CD010297880F991F4FB7F8942E2F6A
:1001F00030E0F901EE0FFF1FE20FF31FE551FB4F57
:10020000928381834FBFFF90EF90DF90CF9008954E
:1002100090E0FC01E255FF4F2491FC01E656FF4FB0
:100220003491FC01EA57FF4FE491EE23C9F02223F9
:1002300039F0233001F1A8F4213019F1223029F1ED
:10024000F0E0EE0FFF1FE458FF4FA591B4918FB778
:10025000F894EC91611126C030953E233C938FBFFA
:1002600008952730A9F02830C9F0243049F780914B
:1002700080008F7D03C0809180008F778093800005
:10028000DFCF84B58F7784BDDBCF84B58F7DFBCF87
:100290008091B0008F778093B000D2CF8091B00072
:1002A0008F7DF9CF3E2BDACFCF93DF9390E0FC0127
:1002B000E656FF4F24918A579F4FFC018491882373
:1002C000D1F090E0880F991FFC01EE58FF4FA591E7
:1002D000B491FC01E458FF4FC591D49161110EC057
:1002E0009FB7F8948C91E22FE0958E238C93288110
:1002F000E223E8839FBFDF91CF9108958FB7F894F1
:10030000EC91E22BEC938FBFF6CF3FB7F89480913E
:100310004A0490914B04A0914C04B0914D0426B531
:10032000A89B05C02F3F19F00196A11DB11D3FBF2D
:10033000BA2FA92F982F8827BC01CD01620F711DFC
:10034000811D911D42E0660F771F881F991F4A95F6
:10035000D1F708958F929F92AF92BF92CF92DF9282
:10036000EF92FF926B017C010E9485014B015C01C1
:10037000C114D104E104F104B9F00E9485016819A7
:1003800079098A099B09683E73408105910580F3CC
:1003900021E0C21AD108E108F10888EE880E83E056
:1003A000981EA11CB11CE4CFFF90EF90DF90CF907E
:1003B000BF90AF909F908F9008952FB7F894609161
:1003C00046047091470480914804909149042FBFDE
:1003D0000895AF92BF92CF92DF92EF92FF920F9368
:1003E0001F93CF93DF936C017B018B01040F151FCB
:1003F000EB015E01AE18BF08C017D10759F0699133
:10040000D601ED91FC910190F081E02DC601099596
:10041000892B79F7C501DF91CF911F910F91FF9043
:10042000EF90DF90CF90BF90AF900895FC01538D77
:10043000448D252F30E0842F90E0821B930B5417BE
:1004400010F0CF96089501970895FC01918D828D4B
:10045000981761F0A28DAE0FBF2FB11D5D968C91E4
:10046000928D9F5F9F73928F90E008958FEF9FEF23
:1004700008950F931F930E94DD01609356047093BB
:10048000570480935804909359048EE494E00E949A
:10049000250297FF1DC00E94DD01009156041091B6
:1004A00057042091580430915904601B710B820B42
:1004B000930B0091520410915304209154043091F5
:1004C00055046017710782079307F8F28FEF9FEFCB
:1004D0001F910F910895FC01918D828D981731F035
:1004E000828DE80FF11D858D90E008958FEF9FEFCD
:1004F0000895FC01918D228D892F90E0805C9F4FA3
:10050000821B91098F73992708958EE494E00E94CD
:10051000790221E0892B09F420E0822F089580E000
:1005200090E0892B29F00E94850281110C94000033
:100530000895FC01A48DA80FB92FB11DA35ABF4F78
:100540002C91848D90E001968F739927848FA689D2
:10055000B7892C93A089B1898C91837080648C9326
:10056000938D848D981306C00288F389E02D8081D5
:100570008F7D80830895EF92FF920F931F93CF9307
:10058000DF93EC0181E0888F9B8D8C8D98131AC0CE
:10059000E889F989808185FF15C09FB7F894EE89B5
:1005A000FF896083E889F989808183708064808312
:1005B0009FBF81E090E0DF91CF911F910F91FF905D
:1005C000EF900895F62E0B8D10E00F5F1F4F0F7305
:1005D0001127E02E8C8D8E110CC00FB607FCFACFC0
:1005E000E889F989808185FFF5CFCE010E949902C3
:1005F000F1CFEB8DEC0FFD2FF11DE35AFF4FF08291
:100600009FB7F8940B8FEA89FB8980818062CFCFF6
:10061000CF93DF93EC01888D8823B9F0AA89BB8939
:10062000E889F9898C9185FD03C0808186FD0DC024
:100630000FB607FCF7CF8C9185FFF2CF808185FF45
:10064000EDCFCE010E949902E9CFDF91CF910895BD
:10065000FC0101900020E9F73197AF01481B590BCD
:10066000BC018EE494E00C94E9018F929F92AF92CA
:10067000BF920F931F93CF93DF93CDB7DEB7A197B0
:100680000FB6F894DEBF0FBECDBF19A2423008F4FA
:100690004AE08E010F5D1F4F842E912CB12CA12CAE
:1006A000A50194010E94DF0CE62FB901CA01EA30CE
:1006B000F4F4E05DD801EE938D01232B242B252B40
:1006C00079F790E080E0109719F0CD010E9428039F
:1006D000A1960FB6F894DEBF0FBECDBFDF91CF91CC
:1006E0001F910F91BF90AF909F908F900895E95CFC
:1006F000E1CFCF92DF92EF92FF92CF93DF936B0126
:100700007C016DE28EE494E00E94BB02EC0166275E
:100710007727CB016C197D098E099F094AE00E9459
:1007200035038C0F9D1FDF91CF91FF90EF90DF90ED
:10073000CF900895CF93DF930E942803EC0186E2C7
:1007400091E00E9428038C0F9D1FDF91CF910895A7
:100750000C942803CF93DF93BC01990F880B990B5E
:1007600097FF0CC00E947903EC0186E291E00E94A1
:1007700028038C0F9D1FDF91CF9108954AE00E94BE
:100780003503F2CFFC0124813581232B39F421E09C
:10079000FB018081882349F020E007C0808191819E
:1007A0000E942D1021E0892BB9F7822F08950F9315
:1007B0001F93CF93DF93EC0188819981009759F0C3
:1007C0002A813B812617370730F081E0DF91CF91F6
:1007D0001F910F9108958B016F5F7F4F0E945F0FF4
:1007E000009759F0998388831B830A832C813D816C
:1007F000232B59F7FC011082E8CF80E0E7CF1F924E
:100800000F920FB60F9211242F933F938F939F93C4
:10081000AF93BF938091460490914704A091480400
:10082000B09149043091450423E0230F2D3758F54A
:100830000196A11DB11D2093450480934604909319
:100840004704A0934804B093490480914A049091CE
:100850004B04A0914C04B0914D040196A11DB11D13
:1008600080934A0490934B04A0934C04B0934D049E
:10087000BF91AF919F918F913F912F910F900FBE9C
:100880000F901F90189526E8230F0296A11DB11D09
:10089000D2CF1F920F920FB60F9211242F933F9336
:1008A0004F935F936F937F938F939F93AF93BF9378
:1008B000EF93FF938EE494E00E949902FF91EF91F1
:1008C000BF91AF919F918F917F916F915F914F9168
:1008D0003F912F910F900FBE0F901F9018951F9270
:1008E0000F920FB60F9211242F938F939F93EF9334
:1008F000FF93E0915E04F0915F048081E0916404D5
:10090000F091650482FD1BC09081809167048F5F28
:100910008F7320916804821741F0E0916704F0E042
:10092000E25BFB4F958F80936704FF91EF919F915E
:100930008F912F910F900FBE0F901F90189580816F
:10094000F4CF1F920F920FB60F9211242F933F9363
:100950004F935F936F937F938F939F93AF93BF93C7
:10096000CF93DF93EF93FF9380913E04C0910F05E7
:10097000D0E087FF24C010928500109284008091FF
:100980003E048F5F80933E0480913E04082E000C4D
:10099000990B8C179D0724F480913E048C30C4F190
:1009A0008091840090918500049680349C4908F4DD
:1009B0007AC08091840090918500049676C08091E1
:1009C0003E04082E000C990B8C179D07C4F6E0918D
:1009D0003E048E2FEE0F990BFC01EE0FFF1FE80F68
:1009E000F91FE551FB4F808186FFC9CFE0913E049E
:1009F0008E2FEE0F990BFC01EE0FFF1FE80FF91F72
:100A0000E551FB4F808160E08F730E940801B7CFF2
:100A10002091840030918500E0913E048E2FEE0FEE
:100A2000990BFC01EE0FFF1FE80FF91FE551FB4F7B
:100A300081819281820F931F909389008093880017
:100A4000E0913E048E2FEE0F990BFC01EE0FFF1F7D
:100A5000E80FF91FE551FB4F808186FF11C0E0913F
:100A60003E048E2FEE0F990BFC01EE0FFF1FE80FD7
:100A7000F91FE551FB4F808161E08F730E940801EF
:100A8000FF91EF91DF91CF91BF91AF919F918F91A6
:100A90007F916F915F914F913F912F910F900FBE7A
:100AA0000F901F90189580E49CE9909389008093A3
:100AB00088008FEF80933E04E3CFCF92DF92EF92D6
:100AC000FF920F931F93E82FF92F05C001501109D2
:100AD0002109310961F1908196239417B9F305C07A
:100AE000015011092109310911F1908196239413C4
:100AF000F7CFC12CD12CE12CF12C0AC08FEFC81AF2
:100B0000D80AE80AF80A0C151D052E053F0579F0EC
:100B100080818623841791F36C2D7D2D8E2D9F2D42
:100B20001F910F91FF90EF90DF90CF90089560E0BC
:100B300070E080E090E01F910F91FF90EF90DF90C8
:100B4000CF900895109251041092500488EE93E0D3
:100B5000A0E0B0E08093520490935304A093540417
:100B6000B093550488E191E090934F0480934E0434
:100B700085EC90E090935B0480935A0484EC90E0C1
:100B800090935D0480935C0480EC90E090935F040C
:100B900080935E0481EC90E0909361048093600404
:100BA00082EC90E0909363048093620486EC90E082
:100BB0009093650480936404109267041092680413
:100BC0001092690410926A0480910F058C3058F5D8
:100BD00091E0980F90930F058093180590E0FC0129
:100BE000EE0FFF1FE80FF91FE551FB4F88EB9BE06D
:100BF000928381830E94DD010E943E0B6093140565
:100C00007093150580931605909317050E94DD01DA
:100C10000E943E0B6093100570931105809312059E
:100C20009093130508958FEF80931805E3CFCF932A
:100C3000DF93CDB7DEB72C970FB6F894DEBF0FBEAB
:100C4000CDBF789484B5826084BD84B5816084BD55
:100C500085B5826085BD85B5816085BD80916E005A
:100C6000816080936E00109281008091810082608B
:100C700080938100809181008160809381008091C8
:100C800080008160809380008091B10084608093B7
:100C9000B1008091B00081608093B00080917A00B3
:100CA000846080937A0080917A00826080937A00D9
:100CB00080917A00816080937A0080917A008068C8
:100CC00080937A001092C100E0915E04F0915F047D
:100CD00082E08083E0915A04F0915B041082E091FD
:100CE0005C04F0915D048FEC808310926604E091C7
:100CF0006204F091630486E08083E0916004F091E7
:100D00006104808180618083E0916004F0916104DE
:100D1000808188608083E0916004F091610480812B
:100D200080688083E0916004F091610480818F7D10
:100D3000808389E291E00E949A038FEF93E00E9402
:100D4000600C833409F40EC163E48FEF93E00E94DA
:100D5000680C00E0E02E01E0F02E10E000E0F7016A
:100D6000D1907F01C8010E94600CD81621F06D2D32
:100D7000C8010E94680C0F5F1F4F0C30110579F7F6
:100D800061E084E00E94540160E085E00E9454012B
:100D9000809118058C3008F051C061E083E00E941A
:100DA000540180911805282F30E0F901EE0FFF1F44
:100DB000E20FF31FE551FB4F9081907C936090838D
:100DC0001092190510921A052CE0622F0E94280E2D
:100DD000829FB001112430E020E0AB01420F531F8D
:100DE000FA01EE0FFF1FE40FF51FE551FB4F908155
:100DF00096FD16C02F5F3F4F2C30310571F78111E2
:100E00000FC01092800082E08093810010928500D4
:100E100010928400B19A80916F00826080936F007D
:100E2000E09118058E2F90E0FC01EE0FFF1FE80FF8
:100E3000F91FE551FB4F808180648083809106011A
:100E4000909107010E948C0033E0632E712C92E098
:100E5000292E312C24E0422E512C61E084E00E94A6
:100E6000080183E290E00197F1F760E084E00E94DE
:100E70000801EFE9F0E06491EBE8F0E08491E82FFD
:100E8000F0E0EE0FFF1FE859FF4F8591949100E4C9
:100E900012E42FE030E0462F0E945D0561157105D8
:100EA0008105910529F06F5F7F4F8F4F9F4F9F7096
:100EB000072E000C880B990B0E94400B2DEC3CEC8C
:100EC00048E652E40E947D0D609341047093420411
:100ED00080934304909344048EE494E00E9479024A
:100EE000181619060CF076C118861F821A86198604
:100EF0001C861B8670E060E0CE0107960E94D70337
:100F00002F813885811140C02115310519F0C901A3
:100F10000E94D60E18861F821C861B861A8619868A
:100F20000E94390297FD38C08A309105A9F1898362
:100F30001A820B851C850F5F1F4FB801CE010796E3
:100F40000E94D703882361F32F8138858B859C8588
:100F5000BE016F5F7F4F820F931F0E9436101C8768
:100F60000B87DECF10E0E12E11E0F12E10E000E063
:100F7000C8010E94600CF70181937F010F5F1F4F32
:100F80000C301105A9F7FCCE1C861B8662E174E0CB
:100F9000C9010E943610C4CF0F81188501151105B3
:100FA00071F0F80181918F01882349F0082E000C1F
:100FB000990B0E941C10F80131978083F2CFCF80EB
:100FC000D884C114D10439F00B851C857601011534
:100FD000110509F055C01A8219821C821B821E82DB
:100FE0001D820F81188501151105B9F0EB84FC8471
:100FF000B701CE0101960E94D70329813A81811160
:1010000075C02115310519F0C9010E94D60E1A824A
:1010100019821E821D821C821B8261E771E0CE0153
:1010200001960E94C203882309F467C08AE391E015
:101030000E949A0386E591E00E949A0386E791E078
:101040000E949A0384E991E00E949A038BEB91E05D
:101050000E949A038EED91E00E949A0382E092E052
:101060000E949A0389E292E00E949A0388E492E047
:101070000E949A038BE892E00E949A039FC0740139
:101080004701FFEF8F1A9F0AF7018081082E000C9D
:10109000990B0E94300B892B91F7015011090C0D0F
:1010A0001D1DF8018081082E000C990B0E94300B49
:1010B000892B31F00E151F0518F001501109F1CFE1
:1010C0000F5F1F4FA8014E195F095C874B87CE1435
:1010D000DF0420F4B701C6010E942410EF81F885D7
:1010E0008B859C85E80FF91F108275CFFE82ED82FB
:1010F000B801C9010E94361090CF62EB71E0CE01B9
:1011000001960E94C203882309F441C086EA92E056
:101110000E949A038FEB92E00E94A8038091000145
:10112000909101010E94AA0383ED92E00E94A8031E
:1011300080910201909103010E94AA038EED92E03A
:101140000E94A80380910401909105010E94AA03C6
:101150008BEE92E00E94A803809106019091070116
:101160000E94AA0389EF92E00E94A80380910801DF
:10117000909109010E94AA0389E093E00E94A803CC
:1011800080910A0190910B010E94AA0373CF6EE82F
:1011900071E0CE0101960E94C203882309F482C047
:1011A00081E090E020913F0430914004232B11F026
:1011B00090E080E09093400480933F0489819A817D
:1011C000009711F00E94D60E8F819885009711F03C
:1011D0000E94D60E80913F0490914004892B09F41F
:1011E00041C089E094E00E94A80360910C017091D5
:1011F0000D01072E000C880B990B97FFBBC00E94B6
:10120000790381E194E00E94A80383E194E00E94C5
:10121000A803C0904104D0904204E0904304F090B1
:101220004404A7019601C701B6010E94230E88233A
:1012300009F4A4C084E294E00E94280381E194E0D0
:101240000E94A80380E394E00E94A80380910C010F
:1012500090910D010597029708F022C187E394E071
:101260000E949A0380910C0190910D0182309105AA
:1012700009F480C10CF017C1019709F45AC164E662
:1012800070E080E090E00E94AA0180E090E0892B6D
:1012900009F4E3CD0E948502882309F4D8CD0E9489
:1012A0000000D5CD60E472E0CE0101960E94C20339
:1012B000882319F08AE193E0DFCE6AE273E0CE0181
:1012C00001960E94C203882379F0809106019091D3
:1012D00007010E948C0085E090E090930D018093BF
:1012E0000C0180E393E0C8CE6EE673E0CE01019678
:1012F0000E94C2038823D9F08091040190910501D6
:101300000E948C000E94DD010E943E0B6093140538
:10131000709315058093160590931705E6E0F0E0AD
:10132000F0930D01E0930C0183E793E0A5CE60EB11
:1013300073E0CE0101960E94C2038823C1F0809120
:101340000C0190910D018530910539F481E090E018
:1013500090930D0180930C0131CF069729F4709280
:101360000D0160920C012ACF85EB93E085CE80EDD4
:1013700093E082CE4AE00E94350343CF46015701F5
:10138000E894B7F82FEF3FEF4FE75FE7C501B401EF
:101390000E94230E81110DC02FEF3FEF4FE75FE753
:1013A000C501B4010E94390B18161CF488E294E0C0
:1013B00043CF2FEF3FEF4FE75FE4C701B6010E9435
:1013C0001E0E18161CF48CE294E036CF2FEF3FEF80
:1013D0004FE75FECC701B6010E94390B87FDF3CFE1
:1013E00020E030E0A901C701B6010E94390B87FF58
:1013F00009C06DE28EE494E00E94BB02F7FAF0941B
:10140000F7F8F0942AE037ED43EA5BE3C701B60151
:101410000E94110D4B015C010E94EF0D6B017C01DC
:101420000E943E0B9B01AC01C501B4010E94100D4E
:101430004B015C014AE0C701B6010E9435036EE230
:101440008EE494E00E94BB0220E030E040E251E4F0
:10145000C501B4010E949F0B4B015C010E94EF0D7E
:101460006B01F12CE12C4AE0C701B6010E94350363
:10147000C701B6010E943E0B9B01AC01C501B4013E
:101480000E94100D20E030E040E251E40E949F0BEA
:101490000E94EF0D90E080E04AE00E943503CECE3E
:1014A00080EB93E0DDCE8330910509F47EC0049794
:1014B00009F0E5CE6091000170910101072E000C4A
:1014C000880B990B0E94400B2091410430914204FB
:1014D00040914304509144040E941E0E87FF3FC078
:1014E0000E94DD010E943E0B2091100530911105F4
:1014F00040911205509113050E94100D6B017C0163
:1015000060910A0170910B01072E000C880B990B5A
:101510000E94400B9B01AC01C701B6010E941E0E48
:1015200087FDADCEE1E0F0E0F0930D01E0930C011A
:10153000A6CE6091000170910101072E000C880B6E
:10154000990B0E94400B209141043091420440913C
:101550004304509144040E941E0E87FD90CE80915A
:101560000401909105010E948C0030920D0120929F
:101570000C0185CE6091080170910901072E000CC5
:10158000880B990B0E94AA010E94DD010E943E0B6C
:1015900060931405709315058093160590931705B5
:1015A00070920D0160920C016ACE0E94DD010E94D2
:1015B0003E0B209114053091150540911605509170
:1015C00017050E94100D6B017C0160910201709162
:1015D0000301072E000C880B990B0E94400B9B0106
:1015E000AC01C701B6010E941E0E87FD16C0809196
:1015F0000601909107010E948C000E94DD010E946B
:101600003E0B609310057093110580931205909323
:10161000130550920D0140920C01609100017091F0
:101620000101072E000C880B990B0E94400B2091A2
:1016300041043091420440914304509144040E947B
:101640001E0E87FD1CCE0E94DD010E943E0B6093A2
:1016500014057093150580931605909317050FCE0A
:1016600091110C940C0C803219F089508550C8F7F8
:1016700008950E947B0B08F481E00895E89409C066
:1016800097FB3EF490958095709561957F4F8F4FB5
:101690009F4F9923A9F0F92F96E9BB279395F695CB
:1016A000879577956795B795F111F8CFFAF4BB0F49
:1016B00011F460FF1BC06F5F7F4F8F4F9F4F16C0AD
:1016C000882311F096E911C0772321F09EE8872F37
:1016D000762F05C0662371F096E8862F70E060E0F3
:1016E0002AF09A95660F771F881FDAF7880F96956C
:1016F000879597F90895990F0008550FAA0BE0E810
:10170000FEEF16161706E807F907C0F012161306C3
:10171000E407F50798F0621B730B840B950B39F403
:101720000A2661F0232B242B252B21F408950A2669
:1017300009F4A140A6958FEF811D811D08950E9497
:10174000B20B0C94260C0E94180C38F00E941F0C4F
:1017500020F0952311F00C940F0C0C94150C11240F
:101760000C945A0C0E94370C70F3959FC1F3950F9F
:1017700050E0551F629FF001729FBB27F00DB11D15
:10178000639FAA27F00DB11DAA1F649F6627B00DA5
:10179000A11D661F829F2227B00DA11D621F739F8E
:1017A000B00DA11D621F839FA00D611D221F749F9C
:1017B0003327A00D611D231F849F600D211D822FE3
:1017C000762F6A2F11249F5750409AF0F1F088230A
:1017D0004AF0EE0FFF1FBB1F661F771F881F915037
:1017E0005040A9F79E3F510580F00C940F0C0C94CB
:1017F0005A0C5F3FE4F3983ED4F38695779567954E
:10180000B795F795E7959F5FC1F7FE2B880F911D60
:101810009695879597F9089599278827089597F9B8
:101820009F6780E870E060E008959FEF80EC089586
:1018300000240A94161617061806090608950024AF
:101840000A9412161306140605060895092E039429
:10185000000C11F4882352F0BB0F40F4BF2B11F49D
:1018600060FF04C06F5F7F4F8F4F9F4F089557FDFC
:101870009058440F551F59F05F3F71F04795880FFE
:1018800097FB991F61F09F3F79F087950895121695
:1018900013061406551FF2CF4695F1DF08C0161641
:1018A00017061806991FF1CF8695710561050894F2
:1018B0000895E894BB2766277727CB0197F9089509
:1018C000F999FECF92BD81BDF89A992780B5089508
:1018D000262FF999FECF1FBA92BD81BD20BD0FB64C
:1018E000F894FA9AF99A0FBE01960895052E97FB7F
:1018F0001EF400940E948D0C57FD07D00E94DF0C4F
:1019000007FC03D04EF40C948D0C50954095309507
:1019100021953F4F4F4F5F4F08959095809570955B
:1019200061957F4F8F4F9F4F08950E94010DA59F96
:10193000900DB49F900DA49F800D911D11240895CA
:10194000B7FF0C94950C0E94950C821B930B089585
:101950002F923F924F925F926F927F928F929F92BF
:10196000AF92BF92CF92DF92EF92FF920F931F93AD
:10197000CF93DF93CDB7DEB7CA1BDB0B0FB6F8945E
:10198000DEBF0FBECDBF09942A88398848885F849E
:101990006E847D848C849B84AA84B984C884DF800F
:1019A000EE80FD800C811B81AA81B981CE0FD11DF3
:1019B0000FB6F894DEBF0FBECDBFED010895A1E2D2
:1019C0001A2EAA1BBB1BFD010DC0AA1FBB1FEE1FB9
:1019D000FF1FA217B307E407F50720F0A21BB30B04
:1019E000E40BF50B661F771F881F991F1A9469F780
:1019F00060957095809590959B01AC01BD01CF01DC
:101A00000895A29FB001B39FC001A39F700D811DD7
:101A10001124911DB29F700D811D1124911D0895F7
:101A20005058BB27AA270E94280D0C94260C0E9410
:101A3000180C38F00E941F0C20F039F49F3F19F465
:101A400026F40C94150C0EF4E095E7FB0C940F0CA7
:101A5000E92F0E94370C58F3BA17620773078407FF
:101A6000950720F079F4A6F50C94590C0EF4E09546
:101A70000B2EBA2FA02D0B01B90190010C01CA0148
:101A8000A0011124FF27591B99F0593F50F4503EF3
:101A900068F11A16F040A22F232F342F4427585FE5
:101AA000F3CF469537952795A795F0405395C9F7FD
:101AB0007EF41F16BA0B620B730B840BBAF09150B5
:101AC000A1F0FF0FBB1F661F771F881FC2F70EC054
:101AD000BA0F621F731F841F48F487957795679527
:101AE000B795F7959E3F08F0B0CF9395880F08F013
:101AF0009927EE0F9795879508950E94910D0C9464
:101B0000260C0E941F0C58F00E94180C40F029F47B
:101B10005F3F29F00C940F0C51110C945A0C0C944B
:101B2000150C0E94370C68F39923B1F3552391F3F8
:101B3000951B550BBB27AA2762177307840738F03C
:101B40009F5F5F4F220F331F441FAA1FA9F335D099
:101B50000E2E3AF0E0E832D091505040E695001C4D
:101B6000CAF72BD0FE2F29D0660F771F881FBB1F07
:101B7000261737074807AB07B0E809F0BB0B802DE5
:101B8000BF01FF2793585F4F3AF09E3F510578F011
:101B90000C940F0C0C945A0C5F3FE4F3983ED4F372
:101BA000869577956795B795F7959F5FC9F7880FE5
:101BB000911D9695879597F90895E1E0660F771F37
:101BC000881FBB1F621773078407BA0720F0621BC8
:101BD000730B840BBA0BEE1F88F7E09508950E94F3
:101BE0003F0C88F09F5798F0B92F9927B751B0F064
:101BF000E1F0660F771F881F991F1AF0BA95C9F791
:101C000014C0B13091F00E94590CB1E008950C94C9
:101C1000590C672F782F8827B85F39F0B93FCCF37C
:101C2000869577956795B395D9F73EF4909580950D
:101C3000709561957F4F8F4F9F4F08950E947B0B4A
:101C400008F48FEF08950E947B0B880B990B089581
:101C5000991B79E004C0991F961708F0961B881FFE
:101C60007A95C9F780950895EE0FFF1F0590F491BE
:101C7000E02D09940F931F93CF93DF93823091054A
:101C800010F482E090E0E0911D05F0911E0530E037
:101C900020E0B0E0A0E0309799F42115310509F477
:101CA0004AC0281B390B24303105D8F58A819B8125
:101CB0006115710589F1FB0193838283FE0111C0D7
:101CC000408151810281138148175907E0F048177C
:101CD000590799F4109761F012960C931297139686
:101CE0001C933296CF01DF91CF911F910F910895F0
:101CF00000931D0510931E05F4CF2115310551F0F9
:101D00004217530738F0A901DB019A01BD01DF0139
:101D1000F801C1CFEF01F9CF90931E0580931D0507
:101D2000CDCFFE01E20FF31F819391932250310931
:101D300039832883D7CF20911B0530911C05232B95
:101D400041F4209110013091110130931C05209332
:101D50001B0520910E0130910F012115310541F431
:101D60002DB73EB74091120150911301241B350B42
:101D7000E0911B05F0911C05E217F307A0F42E1B60
:101D80003F0B2817390778F0AC014E5F5F4F2417DF
:101D9000350748F04E0F5F1F50931C0540931B05FD
:101DA000819391939FCFF0E0E0E09CCFCF93DF93BE
:101DB0000097E9F0FC01329713821282A0911D0571
:101DC000B0911E05ED0130E020E01097A1F42081D4
:101DD0003181820F931F20911B0530911C0528171C
:101DE000390709F061C0F0931C05E0931B05DF91F2
:101DF000CF910895EA01CE17DF07E8F54A815B81AC
:101E00009E0141155105B1F7E901FB83EA83499130
:101E10005991C40FD51FEC17FD0761F480819181A2
:101E20000296840F951FE9019983888382819381AB
:101E30009B838A83F0E0E0E012968D919C9113974A
:101E40000097B9F52D913C911197CD010296820F23
:101E5000931F20911B0530911C052817390739F66F
:101E6000309751F510921E0510921D05B0931C0578
:101E7000A0931B05BCCFD383C28340815181840FC3
:101E8000951FC817D90761F44E5F5F4F888199810C
:101E9000480F591F518340838A819B81938382839A
:101EA0002115310509F0B0CFF0931E05E0931D0513
:101EB0009ECFFD01DC01C0CF13821282D7CFB0E0EC
:101EC000A0E0E5E6FFE00C94AA0C8C01009751F429
:101ED000CB010E943A0E8C01C801CDB7DEB7E0E11C
:101EE0000C94C60CFC01E60FF71F9C01225031092F
:101EF000E217F30708F49DC0D901CD91DC91119749
:101F0000C617D70798F0C530D10530F3CE01049736
:101F10008617970708F3C61BD70B2297C193D19357
:101F20006D937C93CF010E94D60ED6CF5B01AC1A85
:101F3000BD0A4C018C0E9D1EA0911D05B0911E0581
:101F4000512C412CF12CE12C109731F580911B057F
:101F500090911C058815990509F05CC04616570636
:101F600008F058C080910E0190910F01009741F444
:101F70008DB79EB74091120150911301841B950BB0
:101F8000E817F90708F055C0F0931C05E0931B050E
:101F9000F90171836083A0CF8D919C911197129666
:101FA0006C90129713967C901397A815B90559F564
:101FB0006C0142E0C40ED11CCA14DB0420F1AC0158
:101FC0004A195B09DA011296159780F062827382D2
:101FD00051834083D9016D937C93E114F10471F036
:101FE000D7011396FC93EE93129776CF22968C0F1F
:101FF0009D1FF90191838083F301EFCFF0931E05BC
:10200000E0931D0569CF4816590608F42C017D019F
:10201000D3019ACFCB010E943A0E7C01009749F080
:10202000AE01B8010E942410C8010E94D60E87019B
:1020300053CF10E000E050CF9111089581548A51A0
:1020400008F4805E855A0895FB01DC0102C001900E
:102050000D9241505040D8F70895FB01DC018D915D
:10206000019080190110D9F3990B0895FB01DC014F
:1020700001900D920020E1F70895F894FFCF190028
:1020800088130000960020038403010000001F0550
:10209000800000000000BB02E9011602080379027B
:1020A00025026B020D0A0070726F6772616D6D2000
:1020B00073746172746564000A3D3D3D2041564170
:1020C000494C41424C4520434F4D4D414E445320D5
:1020D0003D3D3D0068656C702020202020202020A0
:1020E0002020202D2053686F772074686973206842
:1020F000656C7000646562756720202020202020B8
:102100002020202D20746F67676C652064656275E0
:10211000670073657474696E677320202020202027
:10212000202D2053686F772063757272656E74205E
:1021300073657474696E6773006F70656E2020201C
:1021400020202020202020202D204D616E75616CE4
:102150006C79206F70656E206C696400636C6F73BE
:1021600065202020202020202020202D204D616E61
:1021700075616C6C7920636C6F7365206C696400A9
:102180006175746F20202020202020202020202D09
:10219000206175746F6D61746963206C696420637C
:1021A0006F6E74726F6C0076657273696F6E20204B
:1021B0002020202020202D207072696E74207665EA
:1021C0007273696F6E0073657420202020202020B8
:1021D00020202020202D2074616B65732032206127
:1021E0007267756D656E74733A20746865207365E7
:1021F0007474696E67206E616D6520616E64207411
:1022000068652076616C7565003D3D3D3D3D3D3D19
:102210003D3D3D3D3D3D3D3D3D3D3D3D3D3D3D3DEE
:102220003D3D3D000A3D3D3D2043555252454E54F3
:102230002053455454494E47533D3D3D004143547E
:1022400049564154494F4E5F4845494748543A2002
:10225000004341505F54494D453A20004F50454E90
:102260005F414E474C453A2000434C4F53455F4138
:102270004E474C453A20004C49445F4F50454E5F15
:1022800054494D453A20004C49445F434C4F534517
:102290005F54494D453A20000A76657273696F6E46
:1022A0003A20312E302E3100636C6F7365004C691B
:1022B00064206D616E75616C6C7920636C6F736501
:1022C000642E2053656E6420276175746F27207417
:1022D0006F2072657475726E20746F206175746FF3
:1022E0006D61746963206D6F64652E006F70656E3B
:1022F000004C6964206D616E75616C79206F70654A
:102300006E65642E2053656E6420276175746F2797
:1023100020746F2072657475726E20746F20617501
:10232000746F6D61746963206D6F64652E006175F3
:10233000746F00416C726561647920696E2061750B
:10234000746F6D61746963206D6F64652E00436FF7
:102350006D6D616E64206E6F7420666F756E642E95
:102360002054797065202768656C702720746F2071
:102370007365652061206C697374206F6620636FDC
:102380006D6D616E64730073746174653A20000949
:102390000073656E736F7244697374616E63653A3E
:1023A00020006E616E00696E66006F7666006D6F6C
:0C23B00064653A20006D616E75616C0080
:107800000C94343C0C94513C0C94513C0C94513CE1
:107810000C94513C0C94513C0C94513C0C94513CB4
:107820000C94513C0C94513C0C94513C0C94513CA4
:107830000C94513C0C94513C0C94513C0C94513C94
:107840000C94513C0C94513C0C94513C0C94513C84
:107850000C94513C0C94513C0C94513C0C94513C74
:107860000C94513C0C94513C11241FBECFEFD8E036
:10787000DEBFCDBF11E0A0E0B1E0ECE9FFE702C060
:1078800005900D92A230B107D9F712E0A2E0B1E065
:1078900001C01D92AD30B107E1F70E942D3D0C945F
:1078A000CC3F0C94003C982F959595959595959582
:1078B000905D8F708A307CF0282F295A8091C0000B
:1078C00085FFFCCF9093C6008091C00085FFFCCF60
:1078D0002093C6000895282F205DF0CF982F809127
:1078E000C00085FFFCCF9093C6000895EF92FF92F1
:1078F0000F931F93EE24FF2487018091C00087FD22
:1079000017C00894E11CF11C011D111D81E4E8164B
:1079100082E4F8068FE0080780E0180770F3E09132
:107920000401F091050109958091C00087FFE9CF1E
:107930008091C6001F910F91FF90EF9008950E94D3
:10794000763C982F8091C00085FFFCCF9093C600B5
:1079500091362CF490330CF09053892F089597555D
:10796000892F08951F930E949F3C182F0E949F3CCF
:107970001295107F810F1F9108951F93182F882350
:1079800021F00E94763C1150E1F71F9108951F935A
:10799000182F0E94763C803249F0809103018F5F5E
:1079A000809303018530C1F01F9108958091C0003C
:1079B00085FFFCCF84E18093C6008091C00085FFE5
:1079C000FCCF1093C6008091C00085FFFCCF80E102
:1079D0008093C6001F910895E0910401F091050184
:1079E00009951F9108950E94763C803241F0809164
:1079F00003018F5F80930301853081F008958091AA
:107A0000C00085FFFCCF84E18093C6008091C00058
:107A100085FFFCCF80E18093C6000895E0910401CA
:107A2000F09105010995089540E951E08823A1F0FE
:107A30002D9A28EE33E0FA013197F1F721503040CA
:107A4000D1F72D9828EE33E0FA013197F1F7215064
:107A50003040D1F7815061F708953F924F925F9285
:107A60006F927F928F929F92AF92BF92CF92DF924E
:107A7000EF92FF920F931F93CF93DF93000080E16B
:107A80008093C4001092C50088E18093C10086E015
:107A90008093C2005098589A259A81E00E94143D24
:107AA00024E1F22E9EE1E92E85E9D82E0FE0C02ECA
:107AB00010E1B12EAA24A394B1E49B2EA6E58A2E50
:107AC000F2E57F2EE0E26E2E79E4572E63E5462E36
:107AD00050E5352E0E94763C8033B1F18133B9F107
:107AE000803409F46FC0813409F476C0823409F41B
:107AF00085C0853409F488C0803531F1823521F1A3
:107B0000813511F1853509F485C0863509F48DC0BC
:107B1000843609F496C0843709F403C1853709F423
:107B200072C1863709F466C0809103018F5F80932C
:107B30000301853079F6E0910401F0910501099582
:107B40000E94763C803351F60E94F33CC3CF0E94E2
:107B5000763C803249F78091C00085FFFCCFF092DF
:107B6000C6008091C00085FFFCCF9092C600809136
:107B7000C00085FFFCCF8092C6008091C00085FFC9
:107B8000FCCF7092C6008091C00085FFFCCF609250
:107B9000C6008091C00085FFFCCF5092C600809146
:107BA000C00085FFFCCF4092C6008091C00085FFD9
:107BB000FCCF3092C6008091C00085FFFCCFB09210
:107BC000C60088CF0E94763C863808F4BDCF0E945C
:107BD000763C0E94F33C7ECF0E94763C803809F4CC
:107BE0009CC0813809F40BC1823809F43CC1883942
:107BF00009F48FC080E00E94C73C6CCF84E10E94F2
:107C0000BD3C0E94F33C66CF85E00E94BD3C0E94D3
:107C1000F33C60CF0E94763C809306010E94763C44
:107C2000809307010E94F33C55CF0E94763C80333D
:107C300009F41DC183E00E94BD3C80E00E94C73C66
:107C400049CF0E94763C809309020E94763C809343
:107C5000080280910C028E7F80930C020E94763C79
:107C6000853409F415C18091080290910902892B8D
:107C700089F000E010E00E94763CF801E85FFE4FDA
:107C800080830F5F1F4F80910802909109020817AF
:107C9000190788F30E94763C803209F045CF809125
:107CA0000C0280FF01C16091060170910701660F0F
:107CB000771F7093070160930601A0910802B091AD
:107CC00009021097C9F0E8E0F1E09B01AD014E0F09
:107CD0005F1FF999FECF32BD21BD819180BDFA9A17
:107CE000F99A2F5F3F4FE417F50799F76A0F7B1F4B
:107CF00070930701609306018091C00085FFFCCF5F
:107D0000F092C6008091C00085FFFCCFB092C60003
:107D1000E1CE83E00E94C73CDDCE82E00E94C73CFA
:107D2000D9CE0E94763C809309020E94763C8093D3
:107D300008028091060190910701880F991F909386
:107D40000701809306010E94763C853409F4A6C0A1
:107D500080910C028E7F80930C020E94763C8032D0
:107D600009F0B8CE8091C00085FFFCCFF092C6002C
:107D7000609108027091090261157105B9F140E046
:107D800050E080910C02A82FA170B82FB27011C0E2
:107D9000BB2309F45CC0E0910601F0910701319624
:107DA000F0930701E09306014F5F5F4F46175707B7
:107DB000E8F4AA2369F3F999FECF209106013091E6
:107DC000070132BD21BDF89A90B58091C00085FFB2
:107DD000FCCF9093C6002F5F3F4F30930701209355
:107DE00006014F5F5F4F4617570718F38091C00099
:107DF00085FDE5CE8091C00085FFF8CFE0CE81E023
:107E00000E94C73C67CE0E94763C803209F08CCE3F
:107E10008091C00085FFFCCFF092C6008091C00029
:107E200085FFFCCFE092C6008091C00085FFFCCFAB
:107E3000D092C6008091C00085FFFCCFC092C600E2
:107E40008091C00085FFFCCFB092C60043CEE09188
:107E50000601F091070194918091C00085FFFCCF4D
:107E60009093C6009CCF80E10E94C73C33CE0E9415
:107E7000763C0E94763C182F0E94763C112309F430
:107E800083C0113009F484C08FE00E94C73C22CE29
:107E900080910C02816080930C02E5CE80910C02EF
:107EA000816080930C0259CF809107018823880F4D
:107EB000880B8A2180930B02809106019091070123
:107EC000880F991F90930701809306018091080203
:107ED00080FF09C080910802909109020196909359
:107EE000090280930802F894F999FECF1127E091D6
:107EF0000601F0910701C8E0D1E08091080290915D
:107F00000902103091F40091570001700130D9F34B
:107F100003E000935700E89500915700017001308D
:107F2000D9F301E100935700E89509901990009169
:107F3000570001700130D9F301E000935700E89534
:107F40001395103498F011270091570001700130FB
:107F5000D9F305E000935700E895009157000170B0
:107F60000130D9F301E100935700E895329602976A
:107F700009F0C7CF103011F00296E5CF112480919F
:107F8000C00085FFB9CEBCCE8EE10E94C73CA2CD19
:0E7F900085E90E94C73C9ECDF894FFCF80008B
:00000001FF
